:020000041000EA
:10000000002008205D0100101301001015010010F0
:100010001101001011010010110100101101001058
:100020001101001011010010110100108562001073
:100030001101001011010010E16200102563001091
:100040001D0100101D0100101D0100101D010010F8
:100050001D0100101D0100101D0100101D010010E8
:100060001D0100101D0100101D0100101D010010D8
:100070001D0100101D0100101D0100101D010010C8
:100080001D0100101D0100101D0100101D010010B8
:100090001D0100101D0100101D0100101D010010A8
:1000A0001D0100101D0100101D0100101D01001098
:1000B0001D0100101D0100101D0100101D01001088
:1000C0001D0100101D0100101D0100101D01001078
:1000D0001D0100101D0100101D0100101D01001068
:1000E0001D0100101D0100101D0100101D01001058
:1000F0001D0100101D0100101D0100101D01001048
:100100001D0100101D0100101D0100101D01001037
:1001100000BE00BE00BE00BE00BE00BEEFF3058004
:10012000103800BEF2EB887188850010B48500108D
:10013000A801001090A31AE7D3DEFFFF42012110AF
:10014000FF0100005C970000793512AB4FF0000012
:100150002049086006C881F3088810474FF05040D6
:10016000006810B14FF00000F2E70FA40ECC002998
:1001700002D000F015F8F9E71749184A002000E00E
:1001800001C19142FCD1002080F30A8814498847BC
:10019000144988471449884700BEFDE701C901C2D8
:1001A0009A42FBD3704700BFB485001010010020B5
:1001B000F013002094980010000008200000082090
:1001C0009498001000100820001008200000000083
:1001D0007047000008ED00E0F0130020C424002068
:1001E000D9190010D5020010D1190010F8B500BFC0
:1001F0000348044B834202D0034B03B118477047B6
:10020000F0130020F013002000000000064B074907
:10021000C91A891048BF0131491003D0044B0BB1F2
:1002200001481847704700BFF0130020F01300206A
:100230000000000010B5064C237843B9FFF7D8FF43
:10024000044B13B10448AFF300800123237010BDA9
:1002500090160020000000006C81001008B5044BCF
:100260001BB104490448AFF30080BDE80840CDE766
:1002700000000000941600206C81001070B5192059
:1002800000F06AF84FF00105192345EC44304FF0B7
:100290000006192445EC4040642004F0BBFF46EC06
:1002A0004040642004F0B6FFF3E700BF08B5074DF7
:1002B000074C284601F0D6FC962004F0ABFF204600
:1002C00001F0D0FC322004F0A5FFF2E76C810010B1
:1002D0007C8100100024012500B583B001F078FC7A
:1002E0004FF4807223460949CDE90054084804F0D0
:1002F000A1FA4FF4807223460649CDE9005406481E
:1003000004F098FA04F0C4FDFEE700BF98810010E5
:100310007D020010A4810010AD02001010B44FF453
:1003200080740C4B53F8202003EB8003C00082F054
:10033000400200F1804003F5805C02F0C00200F54D
:10034000203003F54053CCF8002041601C605DF87C
:10035000044B70470480034030B44FF0000343EC7B
:10036000440043EC400005254FF480740B4BC20061
:1003700053F8201003EB800081F0400102F180432C
:1003800003F5203301F0C00200F5805100F5405024
:100390000A605D60046030BC704700BF04800340A9
:1003A0000FB400B583B0049C074801F05BFC3CB17E
:1003B00005A92046019101F0DBFA044801F052FC46
:1003C000012001F0EDFA00BFB0810010C0810010E3
:1003D00070B58646EFF3108572B6124CD4E8CF6F35
:1003E0000120002EFAD1C4E8460F002EF6D1BFF34B
:1003F0005F8F4FF0010CC80801F007030CFA03F3FC
:100400001EF800C01CEA030608D14CEA030C0EF8E3
:1004100000C0C4E88F6F85F3108870BD1046FFF7E9
:10042000BFFF00BFD71B0020F8B5EFF3108572B6F1
:10043000234CD4E8CF7F0126002FFAD1C4E8476FC0
:10044000002FF6D1BFF35F8F9A4227D80126D70835
:1004500010F807E002F0070C06FA0CFC1EEA0C0F7D
:1004600000EBD2070DD125E04FEAD20E10F80EE0D6
:1004700002F0070C06FA0CFC1EEA0C0F00EBD20788
:1004800018D001329342EFD24FF0FF300023C4E87E
:100490008F3F85F31088984207DBF8BD0023C4E83E
:1004A0008F3F85F310884FF0FF300029F5D0069874
:1004B000FFF776FF4EEA0C0E104687F800E0E5E7FE
:1004C000D71B0020044A1078431CDBB2182B28BF2E
:1004D00010231370704700BFF00D002010B5054CBD
:1004E00082B001461F23182200940348FFF79CFFA7
:1004F00002B010BDC4810010F01F00204FF0E022B8
:10050000936843F000539360704700BF0021044B91
:1005100003F12002C3E88F1F01339342FAD17047E1
:10052000CC1B00204FF0E0234FF08032C3F80024B2
:10053000C3F80424C3F80824C3F80C24C3F8102417
:10054000C3F81424C3F81824C3F81C24C3F82024C7
:10055000C3F82424C3F82824C3F82C24C3F8302477
:10056000704700BF012300F01F029340400941B1D2
:10057000800000F1604000F56140C0F88031036008
:100580007047024A203042F82030704700E100E016
:100590000123064A410952F8212000F01F00834040
:1005A000134214BF01200020704700BF00E100E0AB
:1005B00001224309034900F01F008240403341F803
:1005C0002320704700E100E0054A10309268054B97
:1005D00052F82000C01A2F288CBF0020012070473D
:1005E00000ED00E0F40D0020F8B50D46EFF31087A4
:1005F00072B6124ED6E8CF2F0123002AFAD1C6E8F0
:10060000423F002AF6D1BFF35F8F0D4B00F110047B
:100610009B680C4A53F82430934203D0994201D08E
:1006200001F09EF8064B9B6843F82450BFF35F8FA0
:100630000023C6E88F3F87F31088F8BDD51B002044
:1006400000ED00E01D0100102DE9F04F81468B46C2
:10065000164683B0EFF3108372B6DFF8D0A1009393
:10066000DAE8CF1F01230029FAD1CAE8413F002967
:10067000F6D1BFF35F8F664B93F90040002CC0F2B8
:10068000A080644D04EB440705EB870898F806103A
:1006900009F110091970604BBF009B6853F82900DD
:1006A0006300411B2F292FD95C49884240F0A48068
:1006B0001C445B4B02372F44043BDB1BC3F34A0350
:1006C0006FEAC3434FF421416FEAD34325F8241066
:1006D00005EB840463804BF60153A380FF2348F0AD
:1006E0000100E671C4F808B0A3714B4B9B6843F856
:1006F0002900BFF35F8F0023CAE88F3F009B83F37D
:10070000108803B0BDE8F08F20F0010E9EF80710AE
:10071000B1422ED84FF42143EB53414BB91C29442D
:10072000043B04375B1A2F44AEF104013D4CC91B56
:10073000C1F34A012143A8F80410C3F34A033A491C
:100740002343A8F802304AF6AA2073465B1B5B419C
:100750005843000D88F8076088F80600C8F808B00C
:1007600048F00100CEF80010BFE7D179B1422ED990
:1007700096469EF906C00CEB4C02BCF1000F05EB4F
:100780008202F2DA4BF601510EF10402A8F10407DD
:10079000BF1AC7F34A076FEAC7476FEAD7478EF811
:1007A000064003EB0408204C05EB8803AEF8047008
:1007B00045F82840998083F806C0DE71C3F808B078
:1007C00093E700F0CDFF124B93F9004059E77246D2
:1007D00032F8041F490514D44915023102EB4101D6
:1007E00001916FF00701C91B019F491B3944C1F3F7
:1007F0004A0141F46041C9E7019300F0B1FF019B58
:1008000056E701F5FF1101F5FF511F31E4E700BF85
:10081000BC240020F40D002000ED00E01D010010BC
:10082000240E002000E0FFFF01488047D51B002078
:100830002DE9F04F83B0EFF3108A72B6744ED6E80C
:10084000CF2F0123002AFAD1C6E8423F002AF6D171
:10085000BFF35F8F6F4B00F110089B686E4A53F82F
:10086000285095423FD08D420C464AD06B4FEB1B2F
:100870002F2B38D801214FEA50194FEA890909F185
:10088000604909F5614900F01F0301FA03F0D9F846
:100890000030C9F8800000EA030BBFF35F8FEFF36D
:1008A0000581C9B279B3884577D125F0010EDEF80C
:1008B00008C0644505D17CE0D3F808C0644532D057
:1008C0009E469EF9062002EB4203002A07EB8303B3
:1008D000F2DA644500F08180BBF1000F20D0C9F846
:1008E0008001C9F800004B4B9B6843F82850BFF3C8
:1008F0005F8F0023C6E88F3F8AF3108803B0BDE8FE
:10090000F08F1546EFE725F0010EDEF808C06445CC
:10091000D7D19EF906407346002C08DA154666E0EA
:10092000C9F88000DFE793F90640002C56DB04EBA2
:10093000440C07EB8C0CDCF8082061009A609CF8F2
:100940000720DA719CF90620002A9A715DDBBCF859
:100950000420520504D502F5FF1202F5FF521F32A2
:10096000521502F1020C4FF0040E0C2212FB04E2AD
:1009700002EB4C026FF0070C3A44ACEB030C624400
:10098000C2F34A0242F460429A80254B21441A780D
:1009900007EB81011C708A719EE7CDE9000100F030
:1009A000DFFEDDE9000125F0010EDEF808C0644538
:1009B00087D19EF906407346002CB8DA194A1A4CC2
:1009C000D21A083AC2F30A316FEA01516FEA1151A3
:1009D00044EA5202DA8099807EE773460029EDD11D
:1009E000FF228EF806204BF60152AEF804200C4C84
:1009F0004AF6AA2294F800C01946C91B49414A4345
:100A0000120D83F806C0227066E74BF60152BBE771
:100A1000D51B002000ED00E01D010010F40D0020AA
:100A2000BC2400202E0E002000F8FFFFF0B5EFF3ED
:100A30000585EDB2EFF3108C72B62649D1E8CF2FC1
:100A40000123002AFAD1C1E8423F002AF6D1BFF3C0
:100A50005F8F214E40F0010EB4684AF6AA2354F885
:100A600025701E4A0446A41A644163431B0D774552
:100A70005BB21BD092F906409C421CD092F9124006
:100A80009C4223D092F91E409C4221D092F92A40E8
:100A90009C4208BF03240FD0114A0024157813701C
:100AA0008571C1E88F4F8CF31088F0BDB2680D4C92
:100AB00042F82540F0E7002404EB440402EB8402F2
:100AC000FF2494714BF601549480E5E70124F3E789
:100AD0000224F1E7D51B002000ED00E0F40D00201A
:100AE000BC2400201D01001010B5074C82B0014647
:100AF0000523002200940548FFF796FC0028A8BFB4
:100B0000C0F1330002B010BDE0810010C02400200D
:100B1000014B0B4403607047CC1B002070B5104C98
:100B2000104DAC420ED2FF26236863B1FFF7CAFC1A
:100B300001462046FFF7ECFFA680BFF35F8F083425
:100B4000AC42F1D370BDFFF7BDFC01462046FFF774
:100B5000DFFF2671BFF35F8F0834AC42E4D370BD72
:100B6000E8130020F013002010B50446FFF7AAFC9C
:100B700001462046FFF7CCFFFF232371BFF35F8FB1
:100B800010BD00BF10B504460120FFF7A7FC034BC2
:100B900003442360BFF35F8F10BD00BFCC1B002058
:100BA000024B0B440360BFF35F8F7047CC1B0020E8
:100BB0000D4B1A68EFF3108172B6D2E8CFCF012047
:100BC000BCF1000FF9D1C2E84C0FBCF1000FF4D119
:100BD000BFF35F8F00221B68C3E88F2F81F310885B
:100BE00040BF002000217047942400200000000036
:100BF0002DE9F04F2DED028B85B0EFF30583DBB2CD
:100C0000103B9A0818BF01224FF0010103F00300C6
:100C100018BFAF4DAF4B08BFAF4D00EB820253F88A
:100C2000226001FA00FB05F541539FEDA78B01906F
:100C3000C3F804B02EE0B388180440F19280B37971
:100C4000002B40F0DC80B6F908100029C0F21D81AD
:100C5000736901EB410103EBC103D3E90247B7F12B
:100C6000FF3F08BFB4F1FF3F0DD0019B05EB8301AF
:100C7000AB6A0A69D21AE31A934203D32B6A13EAC6
:100C80000B0F00D10C61284600F032FBA042B941A5
:100C9000C0F2FB80B6F90830C5F83CB0002B0093D9
:100CA000C9DBD6F8149003EB430A284609EBCA07C0
:100CB000D7E9024800F01CFBA04271EB0801BADB47
:100CC000B8F1000FC0F2C380D7E90431834A9342E0
:100CD00000F0ED807A88B6F9080092B242EA00404E
:100CE000984702460B4652EA030100F0B080002B01
:100CF00080F2D180B4EB020E68EB030839F93A3088
:100D0000C7E902E8002B96DB716903EB430201EBB4
:100D1000C202D2E90270BE4578EB000C4FEA4302F2
:100D200089DBB4462CF8083F0BE031F93230A44699
:100D3000002B0DDB03EB430001EBC0005A00D0E9B0
:100D40000270BE451A4478EB000001EBC204ECDAF5
:100D500029F83A30009BACF80030B38818043FF50E
:100D60006EAF3369EFF3108272B6D3E8CF0F012173
:100D70000028FAD1C3E8401F0028F6D1BFF35F8FE7
:100D80004FF6FF74B0880023316900B2B480C1E827
:100D90008F3F82F310889842FFF651AF0746A9466D
:100DA000746906F1080807EB470E04EBCE03D3E99C
:100DB0000250B6F90830C446002B13DBB246009748
:100DC00004E034F936309446002B09DB03EB43068C
:100DD00004EBC602D2E90271BD4270EB0101F0DA08
:100DE0005646009FACF8007034F93E7024F83E304F
:100DF000002FD8DAB3794D46002B3FF424AF0023FF
:100E0000B371B6F9083006F10808591C3DD01946EF
:100E1000776903E080465A1C3FF417AF03EB4302A7
:100E200007EBC200B0F802C01C461CF4004F9E46FF
:100E300037F93230EED08C4280ED028B05D0A8F825
:100E40000030318927F8321034817146E3E739F8F0
:100E50003A3033813369EFF3108272B6D3E8CF0FA3
:100E600001210028FAD1C3E8401F0028F6D1BFF3C2
:100E70005F8F7388316929F83A30009B73800023B3
:100E8000C1E88F3F82F31088D5E640BF05B0BDECC6
:100E9000028BBDE8F08F2846CDE9022300F028FA46
:100EA000029A039B10EB020E43EB010826E708466B
:100EB0000B69029198470028C9D00299D1E9002313
:100EC00011E700BFAFF30080FFFFFFFFFFFFFFFF51
:100ED00000800B406C24002000000B40F10B001040
:100EE0002DE9F84F364C25692DB1BDE8F84F0A21A0
:100EF0003448FFF70DBEDFF8E4800321404600F0E0
:100F0000E5F90326C4F80C80FFF7DCFA4FF0504CEB
:100F10002D4B267003442361DCF800300F216370F1
:100F2000636961801D834FF00405A3F878504FF08A
:100F30000505A3F890504FF00605A3F8A8504FF010
:100F400007050E214FF6FF7208274FF00A0EA3F88F
:100F5000C0504FF001094FF00C0C4FF0020B4FF056
:100F6000090A0D204FF00B05A3F868111749A2805C
:100F7000A3F808E1A160A3F848B0A3F8F0A0A3F893
:100F80002051A3F838C1A3F85001A3F83090A3F87A
:100F90006060A3F8D8701A800D4B3046C8F82070F6
:100FA0000C49DC60FFF720FB49463046FFF7DAFAD0
:100FB000094B0A211F640348BDE8F84FFFF7A8BD9D
:100FC0003C0E002094240020CC1B0020FFFF1000CA
:100FD0006C240020F10B001000200B4000000B409F
:100FE000004870473C0E0020F8B59DF8207004467C
:100FF00016461D4637B900F083F9864265EB0101BC
:1010000000295CDB2369EFF3108772B6D3E8CF1FAA
:1010100001220029FAD1C3E8412F0029F6D1BFF3FC
:101020005F8FB4F902C063690CEB4C01BCF1000F97
:101030004FEAC10203EBC10138DB985A4FF0000EB2
:1010400060802069C0E88FEF87F310880698C1E9B7
:10105000026508610798486148880130C0F30E00B6
:10106000012838BF0120488040EA0C402169EFF395
:10107000108572B6D1E8CF7F0126002FFAD1C1E8E2
:10108000476F002FF6D1BFF35F8FA1889952A4F864
:1010900004C02369C3E88FEF85F310880122E36859
:1010A000217803F501538A405A60F8BD0023226974
:1010B000C2E88F3F87F310884FF0FF30F8BD384605
:1010C000F8BD00BF0146F0B50069EFF3108772B6B6
:1010D000D0E8CF5F0124002DFAD1C0E8454F002DA4
:1010E000F6D1BFF35F8FB1F902E04C690EEB4E0C05
:1010F000BEF1000F4FEACC0504EBCC0C3DDB605B8E
:10110000002648800869C0E88F6F87F31088BCF814
:101110000200CCE902230130C0F30E00012838BFE1
:101120000120059BACF80200CCF81030069B40EA89
:101130000E40CCF814300B69EFF3108272B6D3E88E
:10114000CFCF0127BCF1000FF9D1C3E84C7FBCF130
:10115000000FF4D1BFF35F8F8B886353A1F804E0D5
:101160000B69C3E88F6F82F310880122CB6809787E
:1011700003F501538A405A60F0BD00230A69C2E8B2
:101180008F3F87F310884FF0FF30F0BD0346408952
:10119000B0EB214F37DD58690A1402EB420210B55B
:1011A00000EBC2001C69EFF3108C72B6D4E8CFEFED
:1011B0000122BEF1000FF9D1C4E84E2FBEF1000F9D
:1011C000F4D1BFF35F8F428889B292B28A4207D0CE
:1011D00000221B69C3E88F2F8CF31088002010BDFC
:1011E00042F4004242800121002218699971C0E84E
:1011F0008F2F8CF310881C78DA68084602F50153AB
:10120000A140596010BD0020704700BF4078704772
:101210002DE9F04306460D4683B0EFF30584E4B2B2
:101220003CB1274B586AA8421CD2002003B0BDE84D
:10123000F083244FD7F80C9097F80080484600F0D0
:1012400057F808F1040859F828301B1A301A65EBD2
:101250000101984271F1000111DB20BF184B586A5F
:10126000A842E2D39B6AB34203D3012003B0BDE896
:10127000F083401B18BF012003B0BDE8F08300F0ED
:101280003FF8864265EB01010029CADB0E4B384668
:10129000CDE9003432462B46FFF714FF011EC0DDB6
:1012A000074B5A6AAA4208D39B6AB34203D3054844
:1012B000FFF76CFFB5E7AA42F9D120BFF7E700BFFF
:1012C00000000B403C0E0020B10B001010B4054B89
:1012D000054C064AA04214BF1846581C5DF8044B42
:1012E000FFF776B8F41F002000800B40FC8100104F
:1012F0000346416A0A46986A596A8A42FAD1704797
:10130000034B596A0A46986A596A9142FAD1704762
:1013100000000B4010B4174A536A9C46946A536A03
:101320006345FAD1001959414FF0000228BF01224C
:101330000346CAB10F4B596A4B1C08BF0B4608D075
:101340004FF0FF310B460B48426A8A42FCD38A4277
:1013500007D1084A02E0506A884202D1906A984256
:10136000F9D35DF8044B7047024A526A9142EAD8B9
:10137000EDE700BF00000B40F8B5054606200E461D
:1013800000F0E4F8002842D0354A3648954214BFB0
:101390004FF080624FF00062334B344902601A60B4
:1013A0008C6832EA0404FBD12D4B4FF48071EB1AA8
:1013B000B3FA83F32E4A5B09062022F8131000F0DB
:1013C000C5F8C300B3FBF6F30133DA0920D1402698
:1013D00001216962AA622F6BFB0722D42B460022EF
:1013E00053F82C1F062003F5805422602F6300F071
:1013F000ADF840F2013103228000B0FBF6F0EB6A59
:1014000083F0700303F07E0323602963AA64F8BDB0
:101410004FF6FE718A421BD922464FF6FF71154ED8
:10142000D7E740F2013205F540531A636B6AAC6AA4
:10143000062004EB831400F089F80F4BA402A3FBF1
:101440000023DB0A0021B4FBF3F0FFF763FFC5E7DD
:10145000C3F34503114603EB82161A46B9E700BFF2
:10146000008007400020024000300240000002409F
:10147000A0240020C0FF3F00757B2B8F00EB400CA9
:101480004FEA8C0C0CF1804C0CF5803CF0B5164604
:10149000DCF80420051FB2F5803F38BF4FF48032DE
:1014A000EDB238BFCCF80420012D2AD94FF40067E3
:1014B000254C0CF54052176054F82020B2B9DCF8E6
:1014C0000020012D82EA461202F0E0020CF580565F
:1014D00032602AD94FF4006144F820304FF4803351
:1014E0000CF500521160CCF80430F0BD6769B7FB11
:1014F000F2FE0EF1010E0EEB4E0EBEF1030EFCD20B
:10150000DDE70129D2D103240CF540521460DCF848
:101510000820D207FBD5DCF800200B4C82EA4612EB
:1015200002F0E0020CF5805632600122DCF8005037
:101530004D4005F00305356002FA01F1DCF80820A2
:101540000A42FBD0C6E700BFF81F0020014B53F84A
:1015500020007047F81F002070B4039D04682D031D
:1015600045EA03451B4B002CB3FBF1F3B2FBF3F64A
:101570001FDB194A194B904214BF4FF480424FF4BD
:101580000042174C1A6003F580531A60A36832EAD0
:101590000303FBD1212200F5405304330160866030
:1015A0001A600268002AFCDA0822C5601A6070BC62
:1015B0007047036803F03F038B42DAD18368C3F3BB
:1015C0000B03B342D5D1C36803F4EE23AB42D0D1B1
:1015D000EDE700BF001BB70000800540002002407F
:1015E0000000024030B44FF080441C4B1C60E0B15E
:1015F0001B4CA3F54053DC611A4C40F00100444001
:101600001C62596298624FF080454FF0E061134BC5
:101610001548164C1D60846019604AB930BC4FF003
:101620000042A3F580531A607047114BD861EAE776
:101630004FF47A7303FB02F2B2F1807F2ABF6FF09E
:101640007F4313461A464FF080410A4C08482360F6
:10165000094B426030BC1960704700BF00B00D40BC
:10166000D3C007B02D3FF84F00A00140F3FFFF01AA
:1016700000800D405C24002000A00D40012300EB01
:101680004000800000F1804000F58410416003605C
:10169000704700BF002370B5DB8A04460D46002268
:1016A00042E800F2520254BF1021042144F25220B9
:1016B000984786462B462246F446BDE870400A21EC
:1016C0004FF48170604700BF0023DB8A002242E8AC
:1016D00000F2520201D4102118470421184700BF1C
:1016E00008B503460846191E02DB1AB140F0300067
:1016F000FFF7D0FF40F02000FAE700BF034AD2F81E
:101700002838002BFBD0BFF35F8F704700000E40DE
:101710000021044B044ABFF35F8F43F8041B93423C
:10172000F9D170470C080E402C080E4010B44FF44D
:101730008D704FF42A64064A064B07491460D06046
:1017400019605368002BFCDA5DF8044B704700BF4A
:101750000080044000A0044000B0FA00704700BFC1
:1017600008B50148FEF71CFE2082001038B5054C74
:10177000054DAC4204D254F8043B9847AC42FAD32E
:1017800038BD00BF208100106081001010B40748F0
:10179000074C084B084A094904601A608B6832EA12
:1017A0000303FBD15DF8044B704700BF00200240EB
:1017B0007F3BEFEF00300240F6FFF30300000240F2
:1017C000044BDB6CB3F5004F03D14FF48022024B86
:1017D000DA64704700001150002011504FF0E022F1
:1017E000044BD2F8881D0B43C2F8883D10EE30043C
:1017F000704700BF030330006FF06041044B054A9F
:1018000019609368DB4333F06043FAD1704700BF3F
:10181000003002400000024010B545F25320FFF7AF
:1018200053FFBDE8104003460420184710B545F2A9
:101830005320FFF749FFBDE8104003460120184739
:10184000FEF764BE10B5054B054C4FF48872184680
:10185000A16806F021FBA06010BD00BF00000020C1
:1018600000ED00E0002370B52B4C82B0C4F884304A
:10187000FFF75CFF0122294BDA63636C012BFCD17B
:101880000321264A244B11639C6B012CFCD10226B8
:10189000052521460523224A22480096FFF75CFED3
:1018A00021462B46204A21480095FFF755FE00228D
:1018B000042031461E4BFFF7E1FD21462846002259
:1018C0001C4BFFF7DBFD0022082011461A4BFFF7E7
:1018D000D5FD002209201146174BFFF7CFFD00224E
:1018E00006201146134BFFF7C9FD0022114B0720BC
:1018F0001146FFF7C3FD0420FFF728FE00240F4B1D
:10190000A3FB0035AD0CE0B229460134FFF7B6FE6B
:10191000062CF8D102B070BD00000140003001403B
:10192000002F685900000540008C86470080054064
:10193000001BB70080D1F008006CDC0283DE1B4383
:1019400010B5044606F098FA28B10346034A23442A
:10195000934200D810BD0248FEF722FD0000082087
:101960002C82001006F090BA00B9704700F038B928
:1019700010B5094B84B01C684CB1034600914FF080
:10198000FF3203A90548A047012004B010BD00F0B4
:1019900069F9204604B010BD5824002069190010D0
:1019A00000BEFDE7074A0346106838B10649034404
:1019B0008B428CBF4FF0FF301360704703490846DD
:1019C0001160F3E75420002000000820C424002008
:1019D00008B5FFF7E5FF00BF38B5064C064DFFF729
:1019E000C5FEAC4204D254F8043B9847AC42FAD34B
:1019F00038BD00BF608100106C810010036808468C
:101A000011461847437D2DE9F04781460F4616469B
:101A1000002B43D0002A3BDD037D00204D1E0146F4
:101A200015F8012FDFF884800A2A01F101040ED095
:101A3000A6421CD02B782146A3F10D03B3FA83F301
:101A400015F8012F5B090A2A01F10104F0D1002BDE
:101A5000EED18142A1EB000138441BDC022140465B
:101A6000D9F800309847A64208D02046E2E78642DF
:101A700004DD311AD9F8003038449847374417F854
:101A8000013CA3F10D03B3FA83F35B0989F8143029
:101A9000BDE8F087D9F800309847DFE73846D9F835
:101AA00000301146BDE8F047184700BFA48300107E
:101AB0002DE9F04782B00D46924699460746FFF75A
:101AC0001FFC4FF0FF366FF000442F4A821841F19F
:101AD0000003964274EB03013CBF324623462B4879
:101AE00006F00EFB6B1C804603D1384606F062FA06
:101AF0000546274B274E1C68274BB9F1000F18BF2E
:101B00001E46B4B1BAF1000F1AD1DFF8909001E08F
:101B1000246974B12368002BFAD0D9F800300BB1D6
:101B20009C42F5D120462A463946B0472469002C0C
:101B3000F0D1B8F1000F1FD1284602B0BDE8F08700
:101B40004FF00A0ADFF8549002E02469002CF0D02C
:101B50002368002BF9D0D9F800300BB1A342F4D19F
:101B60002A4639462046B047012220460DF107019A
:101B70008DF807A0B047E8E7044806F0B5FA284614
:101B800002B0BDE8F08700BF40420F00E81300201C
:101B900048200020FD190010051A001050200020D8
:101BA0000A4A13684BB1834202D109E0984207D038
:101BB00003F110021B69002BF8D101B110607047CE
:101BC0000029FCD10369136001617047482000209F
:101BD00008B500F035F900F06BFB012008BD00BF2F
:101BE000F0B583B006468DF80700FFF789FB4FF08C
:101BF000FF356FF00044174A821841F10003954207
:101C000074EB03013CBF23462A46134806F078FADA
:101C1000124B07461C689CB1114D01E024697CB150
:101C20002368002BFAD02B680BB19C42F6D12046DA
:101C300001220DF10701FFF7E5FE2469002CEFD129
:101C400017B9304603B0F0BD034806F04DFA3046F0
:101C500003B0F0BD40420F00E813002048200020F0
:101C60005020002038B5044606F0A4F901230546AB
:101C70001A4620462946FFF71BFF084B1C682CB16B
:101C800063682BB198472469002CF9D1284638BDE8
:101C90002469002CF4D1284638BD00BF482000201C
:101CA000B1F1000C1DDD0F4A0F4B126830B5D31A8D
:101CB000B3FA83F30D240D4D5B09411E35F913E092
:101CC0008C4411F8010F864506D093699B06FCD41D
:101CD00061451060F5D130BD93699D06FCD4146058
:101CE000F3E77047A424002000800740A0240020D0
:101CF000224BB1F1000C10B41C682EDD034600200D
:101D00001F4A591E12689369DB0617D40130936984
:101D1000DB06FCD41368844501F8013FF3D14CB1D4
:101D200050211346916353F8342F02F0380203F523
:101D300080531A6060465DF8044B70474CB15021E7
:101D40001346916353F8342F02F0380203F58053A1
:101D50001A6078B15DF8044B70475CB1084B5021B4
:101D60001A681346916353F8342F02F0380203F5D2
:101D700080531A606FF00200ECE700BFE01F002004
:101D8000A4240020054B1B6833B10021044A0548F8
:101D90001268006891631847704700BFE01F002079
:101DA000A4240020E81F0020024B1A6893691B0737
:101DB000FCD47047A4240020F8B51C4F1C4D3A6891
:101DC0001C4EAA4214BF212522250446D6F800C085
:101DD00018B1BCF1000F10D0F8BDBCF1000FFBD062
:101DE000014690632846FEF7BDFB28461249FEF7E0
:101DF0001FFD124B34601C60F8BD0B460F4A0E49A4
:101E0000306028461360FEF7EFFB01212846FEF7FD
:101E1000A9FB3A6850211346916353F8342F02F01E
:101E2000380203F580531A60F8BD00BFA4240020D7
:101E300000800740E01F0020851D0010E81F0020E3
:101E400010B50E490E4C0F480F4A104B0078216018
:101E50000020022112781B78FEF760FA022101208F
:101E6000FEF75CFA4FF4E1312068FFF785FABDE830
:101E7000104001210648FFF793BE00BF0000074055
:101E8000A4240020AC850010A8850010A4850010B3
:101E9000540E0020704700BF0022014B1A7070479B
:101EA000BD2400204B79FF2B0BD1887948B9CB7921
:101EB000012B07D1082A05D9034B8A7809201A700B
:101EC00070470020704700BFBD24002001207047EC
:101ED000012901D00120704708B5104B91881B786B
:101EE000994201D0002008BD5378012B08D0022B65
:101EF000F8D1002164220846FFF774FB012008BDD9
:101F00005188CB054BBF4A0A4A0A10464FF0FF30B2
:101F100002F0010201F07F01FFF7E2FBBD24002087
:101F2000004870478C840010012907D15378012B99
:101F300002D19388072B03D00020704701207047FF
:101F40001146A623014A01F03FBA00BFE483001006
:101F50000346012201481A70704700BFC483001075
:101F600008B50B68B3F5966F00D008BD00224FF09E
:101F7000FF301146FFF7B4FB024A034B10601960B3
:101F8000704700BFE41F0020EC1F0020184B70B505
:101F90001A68002A28D0EFF3108172B6D2E8CF4F2A
:101FA0000120002CFAD1C2E8440F002CF6D1BFF377
:101FB0005F8F00220F4C186859602270C0E88F2F85
:101FC00081F31088002400250B4E3078FEF7E0FAEC
:101FD00020B9002400252046294670BD3078FEF740
:101FE000E7FA2046294670BD4FF47A740025EBE7E6
:101FF00064240020BF240020BE240020014B187858
:10200000FEF7D6BABE24002038B5044600200D469F
:1020100001F006FBA8B3002001F018FB88B3FFF71E
:102020006FF94FF0FF3E6FF0004C174A821841F1F4
:10203000000396457CEB03013CBF724663461348A0
:1020400006F05EF8E8B1002001F0EAFA58B9002184
:102050004FF0FF3000F012FD6FF002040B4806F065
:1020600043F8204638BD002001F0F0FA0028EED0F9
:1020700021462A46002001F0F5FA04460028EDD159
:10208000EAE76FF00204ECE740420F0098240020DA
:1020900008B5FFF735F94FF0FF3E6FF0004C0F4ADF
:1020A000821841F1000396457CEB03013CBF724668
:1020B00063460B4806F024F870B14FF0FF30002162
:1020C00000F0DCFC002001F013FB0028F5D1BDE896
:1020D0000840034806F008B808BD00BF40420F00A2
:1020E000982400202DE9F84307460E46FFF708F92B
:1020F0004FF0FF356FF00044334A821841F100037E
:10210000954274EB03013CBF2A4623462F4805F055
:10211000F7FF08B9BDE8F883002001F081FA002834
:1021200048D0002E41DD0025DFF8A480DFF8A49020
:1021300013E02246002001F021FB002104464FF06D
:10214000FF3000F09BFC002001F0D2FAFFF7D8F836
:10215000C8E900012544AE4227DD002001F030FB34
:10216000741B8442A8BF04467919002CE1D1214692
:102170004FF0FF3000F082FC204601F0B9FA204613
:1021800001F04EFA88B1204601F01AFB0028E2D196
:10219000FFF7B6F8D8F80030D8F8042013EB09039D
:1021A00042F1000283428A41D5D20848BDE8F84393
:1021B00005F09ABF00200021054BC3E90001BDE8EE
:1021C000F843024805F090BF40420F0098240020D9
:1021D0008816002020A1070030B5002185B02E48C8
:1021E00005F09AFFF0B92D4B1A68CAB1EFF31081D0
:1021F00072B6D2E8CF5F0124002DFAD1C2E8454F74
:10220000002DF6D1BFF35F8F254C1D6822785960F1
:10221000D3B201222270C5E88F0F81F31088CBB1B1
:1022200005B030BD00214FF0FF3000F027FC00204A
:1022300001F00CFA0446184805F056FF002CEFD0C8
:10224000184B1B68002BEBD0174A106805B0BDE88F
:1022500030401847FEF7C4FE0446FFF751F84FF030
:10226000FF3C6FF0004510F57A7241F10003944590
:1022700075EB030138BF2B464FF000014FF001050D
:1022800020460A4C38BF6246CDE901150094FEF79E
:10229000ABFE05B030BD00BF9824002064240020B0
:1022A000BF240020E41F0020EC1F00208D1F001021
:1022B0004FF0504330B585B01C68FEF791FEFEF735
:1022C000A5FFA04202D0002005B030BD00212A4B5E
:1022D00008461B7801F04AFD28480368002B47D0C8
:1022E0000120FEF701FC0346254C2649C0B22370AD
:1022F000FEF77AF920780121FEF734F90E20FEF777
:1023000063F940BB204B0125C3E90000FEF768FEDE
:102310000446FEF7F5FF4FF0FF3E6FF0004C10F55E
:102320007A7241F1000396457CEB03014FF0000106
:102330002046164C3CBF72466346CDE90115009419
:10234000FEF752FE0028BEDB01211148FFF728FCF2
:10235000012005B030BD0120FEF7C0F801460A4853
:10236000FEF71EFC00220E200A49FEF76DF9EBE78E
:10237000FEF7FAFBB4E700BFB085001098240020F8
:10238000BE240020D9210010642400208D1F0010DD
:102390006C0E0020FD1F00100048704728850010BB
:1023A00000487047D484001038B5184B04461A789A
:1023B0000AB344B940F209424FF44173144D6A80A4
:1023C00013482B8038BD052C1AD8124B104D53F8EA
:1023D000241028460023013903E0132B20F8022F94
:1023E00010D011F8012F0133DBB2002AF5D15B00C8
:1023F00043F44073E4E71121184600F025F8D8E7CC
:10240000002038BD4FF44A73DAE700BFA82400204B
:1024100020200020BC84001000B545F247308BB06E
:10242000FFF752F901220346092101A89847DDE987
:102430000332044912BA1BBAC1E900230BB05DF89C
:1024400004FB00BF8C240020012901F1FF3300F0C0
:10245000B3805D490A784FEA121C9F2A8CBF0CF1A9
:10246000370C0CF1300C012B80F800C000F0A78075
:1024700002F00F02092A8CBF37323032022B427031
:1024800000F09D804A784FEA121C9F2A8CBF0CF105
:10249000370C0CF1300C032B80F802C000F08F8059
:1024A00002F00F02092A8CBF37323032042BC2707F
:1024B00000F085808A784FEA121C9F2A8CBF0CF1AD
:1024C000370C0CF1300C052B80F804C077D002F0EB
:1024D0000F02092A8CBF37323032062B42716ED080
:1024E000CA784FEA121C9F2A8CBF0CF1370C0CF1F2
:1024F000300C072B80F806C061D002F00F02092AC9
:102500008CBF37323032082BC27158D00A794FEA6B
:10251000121C9F2A8CBF0CF1370C0CF1300C092BCC
:1025200080F808C04BD002F00F02092A8CBF373266
:1025300030320A2B427242D04A794FEA121C9F2A4B
:102540008CBF0CF1370C0CF1300C0B2B80F80AC04F
:1025500035D002F00F02092A8CBF373230320C2BF3
:10256000C2722CD08A794FEA121C9F2A8CBF0CF1C0
:10257000370C0CF1300C0D2B80F80CC01FD002F082
:102580000F02092A8CBF373230320E2B427316D01D
:10259000CA7911099F2A8CBF373130310F2B8173D3
:1025A0000DD002F00F02092A94BF30323732102BBF
:1025B000C27318BF103002D0002303707047184454
:1025C00000230370704700BF8C24002070B500F01A
:1025D00033F90C2340261B4CFF22A3670E201A4917
:1025E000FEF732F8194B32460021184604F0F0FF8E
:1025F0000346002101258020154A58849A60843AB8
:102600005D701E831E875960C2F88410C2F8801066
:1026100002F58072DA60DA62803A83F8211083F87A
:102620003B1059629A624FF0005605F06DFD4FF471
:1026300080320849084B25642846E664C4F89010A7
:10264000DA6470BD00001150A9030020582000205A
:102650008400105010D001000020115001210E20E4
:10266000FDF780BF00220248114600F005B900BF07
:1026700078200020044B197021B14FF40032034B35
:10268000C3F89020704700BFBA24002000201150EA
:102690000B785B0602D14B78052B00D070474B8836
:1026A000014ADBB21360704700001150CB782DE96E
:1026B000F04103F0030EBEF1010FC3F301005DD042
:1026C000002791F802C0354C0CF07F035E0089882A
:1026D00006EBDC1204EB42124FEADC15D076C1F3B4
:1026E0000A0185F00100507082F802C01183D77092
:1026F00018B2DA008DBB2A48043204EB831C02EBCB
:102700000008CCF8088017508BB3264ADB001A4427
:10271000CCF80420244B3F311A6821F03F01BEF170
:10272000020F08BF490011441960204B771904EBD0
:1027300047179942FA602CD82E4404EB4613D97EF1
:1027400082F0A04282F480125B6842EA816242F029
:1027500000421A600120BDE8F081DFF844C004EBBC
:1027600083186244C8F828204CF830704BB9002216
:102770000F4904EB4513D9605A60EBE70020BDE830
:10278000F081DB0003F1A04303F58013C8F8243087
:10279000C0E7FEF7E5FFFA68CEE700BF582000204B
:1027A000800010500400105060240020FF0F1050D3
:1027B0000001105005F0A8BC8C4608B5114607482A
:1027C0001A460CF07F034FEADC1C0CEB430C00EBC9
:1027D0004C1000F051F8012008BD00BF5820002027
:1027E000CB0911F07F0103D1064AC3F102009066C4
:1027F000054803EB41034FF40062002100EB431056
:1028000005F07ABC002011505820002011F07F0301
:1028100000D17047002210B4C809064C00EB4300F9
:1028200004EB40136FF4006118465DF8044BDA7056
:1028300005F062BC582000204FF0805209480A4938
:1028400008B50A4B02600A609968C94311F08051CB
:10285000FAD14FF48052064804F0BAFE0922054B23
:102860005A6708BD002002400030024000000240CC
:10287000000010500000115000234FF0010C10B563
:1028800080F81AC08282C3820161044605F040FCD0
:1028900020B14FF40032074BC3F89020204605F0DA
:1028A00027FC10B10123237710BD2046BDE810405E
:1028B00005F016BC002011502DE9F04100241D4EFA
:1028C000054623463278DFF878801B4F0DE03B68E1
:1028D00013EB441325D0DB6828469847327801343F
:1028E000E4B2511CA142234606DBA242A3EB020341
:1028F000EDD808EB4313EEE7104C5422002120469C
:1029000004F066FE4FF0FF33251D6360C5E9013317
:10291000EB6004F114002022BDE8F041FF2104F037
:1029200057BE4FF0E023D3F8F03DDB0700D500BEE3
:10293000BDE8F081B9240020F41A0020F81B002023
:102940003C850010704700BF704700BF00207047F3
:1029500000207047704700BF704700BF704700BF3E
:10296000704700BF024B5878003818BF01207047ED
:10297000F81B0020024B1878C0F38000704700BF9E
:10298000F81B00202DE9F047DFF8E8A09AF80030A6
:10299000FF2B02D00120BDE8F0870E4600293ED073
:1029A000002154220746294804F012FE0022284C38
:1029B000284B20461A70FEF7D7F8274B27481C6093
:1029C000274CFEF7DFF8204601F0D2FD254A264BC2
:1029D000264D146063B32846FFF7BAFA244B2A78D1
:1029E00018600024DFF890902346DFF884800EE022
:1029F000D8F8003013EB441311D05B687BB19847D3
:102A00002A780134E4B2511CA142234612DBA242CF
:102A1000EED89B1A09EB43135B68002BEFD14FF004
:102A2000E023D3F8F03DDB0700D500BE0020B2E77D
:102A30002A78D6E7314638468AF80070FFF7C6FD97
:102A40000028ECD03846FFF709FEA3E7F81B00206A
:102A5000F01B0020BB2400204C1C0020980E0020FE
:102A6000840E0020501C0020511F0010B9240020AB
:102A7000F41A0020A00E00203C8500102DE9F04F34
:102A8000DFF8C8928BB099F80030FF2B00F0F1808E
:102A9000A84CA94DDFF8B0A2DFF8B4B2266873697C
:102AA000EFF3108272B6D3E8CF0F01210028FAD1DC
:102AB000C3E8401F0028F6D1BFF35F8FB2613046F4
:102AC00007A901F0A3FB00237269C2E88F3FB36935
:102AD00083F31088002800F0CC809DF81D30013B66
:102AE000072B00F27D83DFE803F0A7B1959D8E35BB
:102AF0000A04089B002BD1D009989847CEE79DF88F
:102B0000201001F07F0605EB460000EBD11090F895
:102B1000343023F0010380F8343090F8343023F05F
:102B2000040380F83430002E00F0A680037D9AF86C
:102B30000020934280F09380804A126812EB431386
:102B400000F090809E699DF82120099B9DF81C0053
:102B5000B047A3E79BF80030002B00F083809BF880
:102B60000030013BDBB28BF800309BF8003003F003
:102B7000FF00002B92D1704F9DF81C803B7843F0F2
:102B800001033B7097F8343060F3000387F834306A
:102B900097F8343060F3820387F8343097F8353093
:102BA00060F3000387F8353097F8353060F382031F
:102BB00087F8353000F068FC9DF8203003F06002A3
:102BC000602A6CD0402A7CD003F01F03012B00F058
:102BD000C180022B00F08180002B60D1202A00F000
:102BE000E981002A5BD19DF82130092B57D8DFE815
:102BF00013F0B001A2015600C101560095016B010E
:102C000056006001F4002B78D9077FF547AFFFF736
:102C1000A7FE43E7EB78DA077FF540AF0898FFF7A8
:102C200093FE3BE72B78D8077FF538AF2878C0F3C1
:102C3000C000FFF793FE31E79DF81C00FFF73CFE54
:102C400000F018FC9DF82030AB7027E79DF81C00C1
:102C5000FFF732FE00F00EFCFFF77EFE1EE7501C71
:102C6000984211DA4FF0E023D3F8F03DDC0700D5AD
:102C700000BE0BB0BDE8F08F099B9DF821209DF8A8
:102C80001C0000F015FC09E79B1A2D4A02EB4313C8
:102C900058E7FFF785FB0246002840F082814FF09D
:102CA000E023D3F8F03DDE0700D500BE9DF81C0000
:102CB0000021FFF795FD80219DF81C00FFF790FD96
:102CC000ECE6204800F0E0FB0121404608AAFFF7AF
:102CD0002BF900287FF4E2AEE8E79DF8241011F00C
:102CE000700FDCD101F07F0607EB4600164B00EBBE
:102CF000D1101B78007D7600019698424FEAD116DC
:102D0000009659D35E1C8642C0F26681C01A0C4BF5
:102D100003EB4016002A00F06381706900F0B4FBF9
:102D200001214046736908AA984700287FF4B6AE8F
:102D3000BCE700BF501C0020F81B0020F41A002044
:102D40003C850010291F0010B9240020A00E00208F
:102D5000BB2400209DF824300F2BA7D8AE4A3B445B
:102D60001B791278934232D3511C99429EDBAB4EB1
:102D70009B1A06EB4316706900F086FB0121404662
:102D8000736908AA984700287FF488AE9DF8203020
:102D900013F060068AD19DF821300A3B012B85D8BB
:102DA00000F072FB9DF821300A2B00F0F2814046C2
:102DB00008A900F0EFFA71E6994B1B6803EB401687
:102DC000002A00F00D81002E3FF470AFA5E7944A71
:102DD000166816EB4316CED168E77B789DF8226023
:102DE0009E4200F04F817B78002B40F0BE817E70C8
:102DF000002E00F04581701EC0B2FFF7D1FA0346E5
:102E0000002800F05F814278022A40F05B81C1799E
:102E100003F10906C1F340121201C1F3801142EA25
:102E200041123146387820F0300002433A705A8817
:102E3000CDF80C809A180192019B8B4240F2A4813C
:102E40004A780B2A00F0AF810123042A40F03A812E
:102E50000026019A0096521A92B202926E4A049388
:102E600012781DE06E4B1B6813EB461800F02A81A8
:102E7000029AD8F81030039805919847082802461E
:102E8000059906F1010303D90298904280F0FF8072
:102E9000DEB2614B00961A78531C9E4200F31281F9
:102EA000009BB242A3EB0202DCD85C4B03EB42185E
:102EB000DEE77B7840468DF81A300DF11A020123C7
:102EC00008A900F081FAE9E5BDF82200030A013BF8
:102ED000020AC0B20E2B3FF6E9AE01A151F823F071
:102EE000F5300010912F001031310010AD2C001082
:102EF000AD2C001013310010912F0010AD2C0010DC
:102F0000AD2C0010AD2C0010AD2C0010AD2C00101D
:102F1000AD2C0010AD2C0010E730001008A800F018
:102F2000B9FA40469DF82210FFF79CFB3B7843F02E
:102F300002033B70B2E5BDF82230012B7FF4B6AE40
:102F40003B78404623F0080308A93B7000F022FAC2
:102F5000A4E540463B789A0802F00202C3F340130E
:102F60001343ADF81A300DF11A02022308A900F03C
:102F70002BFA93E5BDF82230012B7FF497AE3B7816
:102F8000404643F0080308A93B7000F003FA85E5CA
:102F9000022A3FF47EAEFFF7DBFC024600283FF436
:102FA00085AE4046538808A900F00EFA00287FF449
:102FB00075AD7BE69DF824300F2B3FF677AE164AB1
:102FC0003B441B79127893421DD2154A166816EBC2
:102FD00043167FF4A2AE69E6002A7FF467AE0026AE
:102FE0009DF8212002F0FD03012B1BD0002A7FF465
:102FF00056AE019B009A3B44134493F8343040464C
:10300000C3F34003ADE7511C9942FFF64FAE034EA8
:103010009B1A06EB431680E6B92400203C8500107D
:10302000F41A0020BDF82230B3B9012A99F8000043
:1030300000F08680FFF7D4FB019B009A3B441344C9
:1030400093F8342042F0020283F8342093F83420BD
:1030500042F0010283F83420002E3FF41FAD706966
:1030600000F012FA7369012108AA4046984700202F
:1030700000F00AFA97F83530DF073FF50FAD96E616
:10308000FFF76AFC404608A900F084F906E5049BB6
:10309000012B00F09E80002B00F08A80002091F828
:1030A000028005E08CF804605FFA80FC63457FD9FC
:1030B00008EB000C57FA8CFC9CF804E00130BEF1E0
:1030C000FF0FEFD04FF0E023D3F8F03DDA0700D543
:1030D00000BE4FF0E023D3F8F03DDB0700D500BE83
:1030E00000237B70E2E5FEF71BFF024600287FF419
:1030F00058AFDBE5FFF750F9024600283FF4CFADAB
:103100004046122308A900F05FF900287FF4C6ACFE
:10311000CCE5FFF71BFC024600283FF4C7AD404654
:10312000137808A900F050F900287FF4B7ACBDE58A
:10313000BDF82410FFF738F902460028EFD1B5E5B5
:103140000293FFF763FB019A009B3A441A4492F8FA
:103150003410029B63F3410182F8341092F834106A
:1031600063F3000182F8341076E700214046FFF750
:1031700081FA4046FFF71EFBBB7840460093FFF7FD
:103180009BFB009BBB7032E6DDF80C80FFF7E2FB97
:1031900078E74046012308A90DF11A028DF81A605C
:1031A00000F012F97AE40A78CB7811444A784CE6B8
:1031B000334610480492029100F09EFE0E4B049A92
:1031C00002991B781144009A01339342BFF634AE42
:1031D00078E7D8F810C00948844508BF02235DE7A6
:1031E0004FF0E023D3F8F03DDB077FF557AC00BE8E
:1031F00054E400BF0C1C0020B9240020C13800108A
:103200002DE9F84FDDF82890002A3ED00C461F46E5
:1032100016460025DFF87880DFF878A016E0204613
:103220009AF8021000F018FEF0B121465846FFF758
:103230003DFA00B3A3780135DA0916BF0B9A89F875
:10324000003013702378B5421C441ED06378052BE0
:1032500011D1E37803F00303BB420CD1A27898F8B4
:1032600000B012F07002DAD04FF0E023D3F8F03D56
:10327000DA0700D500BE4FF0E023D3F8F03DDB07BE
:1032800000D500BE0020BDE8F88F0120BDE8F88F12
:10329000A00E0020F81B002038B58A780D4B12F0E4
:1032A00070021D7808D04FF0E023D3F8F03DDB0723
:1032B00000D500BE002038BD074B0C460846997863
:1032C00000F0CAFD0028EED021462846BDE838406F
:1032D000FFF7ECB9A00E0020F81B00200B46064AB1
:1032E00006481168DA09343203F07F0302EB430326
:1032F000184400F06BBD00BF4C1C0020F81B0020E0
:103300000B46064A06481168DA09343203F07F0397
:1033100002EB4303184400F083BD00BF4C1C0020A7
:10332000F81B002010B5194C01F07F0E04EB4E0481
:1033300004EBD11494F834C015481CF0010F04F1CB
:103340003004007808D04FF0E023D3F8F03DDA07DE
:1033500000D500BE002010BD94F804C04CF0010C54
:1033600084F804C0FFF728FA0028F4D14FF0E021D8
:10337000227960F300022271227960F382022271C5
:10338000D1F8F03DDB07E5D5E3E700BFF81B0020EF
:10339000A00E002030B50B4C8C46A64605460868AA
:1033A00049680023AEE803009CF800102846C94392
:1033B000C4E90233BDE830401A4601F08001FFF74E
:1033C000B1BF00BFB81B00202DE9F041274F4FF0DF
:1033D0000008BE468C46064608684968BA60AEE8F2
:1033E0000300A7F80E801546BCF80620934228BFBC
:1033F0001346BB819AB11C462BB3DDB197F900305F
:10340000402C28BF4024002B28DB41462346304671
:10341000174AFFF787FF68B10120BDE8F0819CF8EB
:1034200000101346C943304601F08001FFF77AFFD0
:103430000028F1D14FF0E023D3F8F03DDB0700D5B1
:1034400000BE0020E9E71A46397801F080012346E2
:103450003046FFF767FF0028DED1EBE7224629461A
:10346000034804F019FD8021014AF0E7B81B002051
:10347000781B00200022034BC3E90022C3E902228B
:103480001A617047B81B0020014B1861704700BFDC
:10349000B81B002030B40246044C002523460068C7
:1034A0005168C4E9025530BC03C37047B81B002003
:1034B00070B53C4CC90922780646B1EBD21F1D46B7
:1034C00082B017D053B14FF0E023D3F8F03DDB07C3
:1034D00002D4002002B070BD00BEFAE72146FFF71B
:1034E000D7F823691BB122460321304698470120B3
:1034F00002B070BD94F90030A068002B05DB0028F5
:10350000E7D02A46284904F0C7FCE089A168E3888F
:10351000284480B229448342E081A16016D03F2D27
:1035200014D9A28994F90040131A9BB2402B28BFEA
:103530004023002C26DB90424FF0000130D01A4A85
:103540003046FFF7EFFE0028D1D1BCE7236923B155
:1035500002213046134A984758B121780023C943C5
:1035600030461A4601F08001FFF7DCFE0028BED18C
:10357000A9E701463046FFF733F980213046FFF7CF
:103580002FF9B4E7904208D01A460748019304F097
:1035900083FC8021044A019BD2E780210022CFE7EF
:1035A0000A46CDE7B81B0020781B00202DE9F0412A
:1035B0000446FFF7D7F908B9BDE8F081FFF7DAF95B
:1035C00007460028F8D1C822134B02FB0436F178D5
:1035D0000029F1D006F11005284600F005FE3F282D
:1035E000EAD93846F178FFF779FE0028E4D028467A
:1035F00000F0FAFD3F2809D9084A3846F17802EB75
:10360000C4124023BDE8F041FFF78CBE3846F17884
:10361000BDE8F041FFF774BE40140020F81A002006
:1036200010B50446FFF79EF908B9002010BDFFF75A
:10363000A1F90028F9D1C822034B02FB0433187901
:1036400000F0010010BD00BF40140020C82108B5E3
:10365000102301FB0030024A104400F0ABFD08BD0E
:10366000401400202DE9F8434FF6FF734FF0C808CF
:1036700010249A4228BF1A4618FB00441A4F0646E7
:103680003C44204692B200F00BFE0546FFF76AF973
:1036900010B92846BDE8F883FFF76CF98146002889
:1036A000F7D108FB0677FB78002BF2D0204600F01C
:1036B0009BFD3F28EDD94846F978FFF70FFE00281B
:1036C000E7D0204600F090FD3F2808D9074A484639
:1036D0004023F97802EBC612FFF724FED9E74846EB
:1036E000F978FFF70DFED4E740140020F81A002007
:1036F0002DE9F0410546FFF735F910B90020BDE886
:10370000F081FFF737F906460028F7D14FF0C808D7
:10371000242418FB0544174F3C44204600F04AFD82
:103720000028EBD008FB05773046B978FFF7D6FDC7
:103730000028E3D04022104B204602EBC5141C4465
:10374000214600F0ADFD054680B1034622463046D5
:10375000B978FFF7E7FD38B94FF0E023D3F8F03D33
:10376000DB07CBD500BEC9E72846C8E7B978FFF725
:10377000C7FDC3E740140020F81A002038B54FF603
:10378000FF734FF0240CC8249A4228BF1A4614FB3A
:1037900000C40A4B92B21C440546204600F03CFE91
:1037A000034620461C4600F005FD3F2801D8204670
:1037B00038BD2846FFF79CFF204638BD4014002046
:1037C000C82108B5242301FB0030024A104400F050
:1037D0000BFD08BD40140020F0B51A4C83B0C82280
:1037E0000021204603F0F4FE0025FF264FF4E130CF
:1037F0000821009501236671A060A173402204F1A5
:10380000380104F1100000F0A5FC0F4A01231178E3
:1038100004F1B807C1F380014022009104F12400B3
:1038200004F1780100F096FC04F1C0063846FDF77B
:103830009BF93046FDF798F9C4E90757C4E90C65D0
:1038400003B0F0BD40140020A40E0020094B196BFA
:1038500049B11A6A12B10022C3E907220022C3E962
:103860000C22012070471A6A002AFAD00120C3E90D
:103870000711704740140020002210B50D4C0E486F
:10388000237802600271DA0709D59B070DD52178EC
:103890000A48C1F38001BDE8104000F085BE103039
:1038A00000F066FE23789B07F1D4044800F060FE28
:1038B000EDE700BFA40E0020401400206414002097
:1038C000F0B54B7983B0022B03D00025284603B016
:1038D000F0BD8B79022BF8D1264FBB783BB14FF06E
:1038E000E023D3F8F03DDB07EFD500BEEDE78B78A2
:1038F00006463B700B780925CC18617824290BD13A
:10390000082A02D80FE0AA420DD323781C4461781C
:103910002B4424299DB2F6D005290AD0042902D1CE
:1039200063790A2B13D00020FFF740FE284603B02E
:10393000F0BD21463046FFF7AFFC0028CFD0A3787A
:103940007B7023781C442B4461789DB2E6E70A4BD8
:103950002778019301330093022330461A46E11978
:10396000FFF74EFC0028BAD00E3517FA85F5ADB238
:10397000D9E700BF401400204214002038B5137866
:1039800003F06003202B05D1274C938894F800C0E6
:103990009C4501D0002038BD5378203B032BF9D83B
:1039A000DFE803F02C280D02012933D0032923D1AD
:1039B0001E4B0BB300205188AFF300801CE001299F
:1039C00028D0032918D11A4B55881978257111F080
:1039D000040105F00104174818BF84F0010100F04C
:1039E000E3FD154B43B121460020C5F34002AFF380
:1039F000008001E0012911D0012038BD01290DD03E
:103A00000329F9D10D4B002BF6D000200C49FEF70D
:103A1000A7FAF1E71146FFF7BDFCEDE711460723D2
:103A2000074AFFF7D1FCE7E7401400200000000040
:103A3000A40E00206414002000000000611F00108C
:103A4000481400202DE9F047374F0C46FA78064617
:103A50008A421D4697F802C03DD08C4512D04FF0E7
:103A6000E023D3F8F03DDB0700D500BE00200DE0D9
:103A70002E4B23B12E4800F0ADFB002850D0002083
:103A8000FFF794FDBB78A34202D00120BDE8F08788
:103A9000284B13B10020AFF300800020FFF728FE71
:103AA0000028F2D1244800F085FB0028EDD1002D3C
:103AB000EBD015F03F05E8D13046B978FFF70EFCA2
:103AC0000028E2D02B462A463046B978FFF72AFC78
:103AD0000028DAD1C3E7DFF868809AB2414607F1DF
:103AE000100000F099FC154B002BC1D07B79FF2B07
:103AF000BED0002DBCD007F1100908EB050A02E08A
:103B0000C245B5D07B7918F8012B9A42F8D14846C6
:103B100000F060FB0028F3D17979AFF30080EFE784
:103B2000AFF30080ABE700BF4014002000000000AE
:103B30005014002000000000641400200000000069
:103B4000F81A0020F0B5144C85B04FF41372002120
:103B5000204603F03DFD402700234FF480760F4DB3
:103B600004F5A6721946CDE90257009201961A464D
:103B700004F5947000F0ECF9002304F128013D44B1
:103B8000009101221946CDE902570196201D00F04F
:103B9000DFF905B0F0BD00BF941D0020141D00200A
:103BA00010B5054C204600F0FFF9A4F5927000F026
:103BB000FBF9012010BD00BFBC1E002038B5002558
:103BC000064C04F59870257000F0D2FC04F10C004E
:103BD00000F0CEFC84F82951657138BD941D002099
:103BE0002DE9F84F4B79FF2B02D00020BDE8F88F6C
:103BF000394D0E4695F829310C78002BF5D16F79A7
:103C0000002FF2D18B780C442B700B79002B3ED017
:103C1000804601EB020B05F5987A05F594796378F7
:103C2000052B09D0A34502D831E05C452FD223787B
:103C30001C446378052BF8D1A34528D9214640467A
:103C4000FFF72AFB00283ED0A378DB0923D150469A
:103C500000F08EFCA37895F8281185F82931A38807
:103C60004046C3F30A03A3F50073B3FA83F35B0979
:103C700063F3410185F82811494600F003FA10B3B7
:103C80002378317901371C44FBB29942C7D8A11B74
:103C900088B2BDE8F88F114800F06AFCA37895F867
:103CA00004C06B71A3880E49C3F30A03A3F5007324
:103CB000B3FA83F35B0963F3410C002085F804C079
:103CC00000F0A8F9DCE74FF0E023D3F8F03DDB0784
:103CD0008BD500BE89E700BF941D0020A01D0020E9
:103CE000981D002070B51B4C064694F829C11D464E
:103CF0008C45627904D08A4218BF002018D070BD6C
:103D0000B4F8343163B9144B23B100201349AAB27B
:103D1000AFF300803046124900F0B4F9012070BDC5
:103D2000D4F82C11AAB204F5987000F075FBEAE7FC
:103D30000C4B1BB10020A9B2AFF3008030460A49FA
:103D400000F068F90028E9D12A463046064900F01B
:103D50002DF9E3E7941D002000000000141D002051
:103D6000BC1E002000000000981D002010B582B08D
:103D7000B9B101280CD80B7853B1134C012B235443
:103D800002D0012002B010BDFEF7FCFD0028F8D1E2
:103D90004FF0E023D3F8F03DDB0700D500BE002054
:103DA000F0E70124084601A9ADF80440FEF7EAFD5A
:103DB00038B94FF0E023D3F8F03DDA07E2D500BE82
:103DC000E0E7014B1C70DDE7EC1B0020F8B5037841
:103DD00013F001041AD1037805465A07C3F380078C
:103DE00001D52046F8BD0E464FF0FF31304604F0B5
:103DF00073F92B7813F001040BD12B785B0709D4EE
:103E00002B78012443F004032B7003E000242046A8
:103E1000F8BD3C46304604F067F92046F8BD00BFC7
:103E200070B50C4605464FF0FF31204604F054F9BA
:103E30002B78C3F380065B0708D52B7813F00103BA
:103E400011BF00262A7863F382022A70204604F00C
:103E50004BF9304670BD00BF00B5C378B0F804E040
:103E600003F00303022BCEF30A0C15D0032B04D06E
:103E7000012B28D000205DF804FB022914BF402349
:103E80004FF4806363451CD24FF0E023D3F8F03D3C
:103E9000DA07EFD500BEEDE702291DD012B1BCF55F
:103EA000007F21D0BCF1200F1AD81EF4FF6FEBD099
:103EB000104BACF1080C1FFA8CFC23FA0CF3DB0757
:103EC000E2D50120D7E7022940F2FF3308BF4FF4C3
:103ED00080636345F5D2D7E7BCF5007FF1D0D3E727
:103EE000BCF1400FEDD0CFE70022402342710371B7
:103EF000E7E700BF010100010A44914226D291F890
:103F000001C0BCF1050F05D091F800C061448A42A0
:103F1000F5D8704700B591F802C00CF07F0E00EBA9
:103F20004E0E4FEADC1C0EF80C3091F800C06144D4
:103F30008A4209D991F801C0BCF1050FEBD091F884
:103F400000C061448A42F5D85DF804FB704700BFA9
:103F50002DE9F0418E4682B0009390F800C0089E93
:103F6000BDF824706EF3000C04461546012331465B
:103F70003A4600F808CBBDF82C8000F0EBF806B10B
:103F80003FB901200A9BA4F80280636002B0BDE83B
:103F9000F08104F11C063046FCF7E6FD0DB1354614
:103FA0000026C4E90556ECE701207047F8B507463E
:103FB000084640F2FF13154610F8082B0C4612F085
:103FC000020F0CBF3F261E4600F0F4F828B925B1B9
:103FD0002E4202D12378DA0701D50020F8BD3846F9
:103FE0006178FFF77BF90028F7D0237813F00103FD
:103FF00007D04FF0E023D3F8F03DDB07EDD500BE4E
:10400000EBE71A4638466178FFF78CF90028F0D0C4
:10401000F8BD00BF70B501F10805064628460C46FC
:1040200000F0C8F810B12378D80701D5002070BD82
:1040300030466178FFF752F90028F7D028466288A9
:10404000616800F02DF92378054648B1D9070ED5EF
:104050004FF0E023D3F8F03DDA07E7D500BEE5E7FF
:10406000DB07E3D430466178FFF74AF9DEE7034621
:10407000626830466178FFF755F90028E8D0284695
:1040800070BD00BF8A892DE9F0410B780C460546CA
:104090008AB9DF0725D44978FFF720F908B32278D9
:1040A0006388D6073FD54FF0E023D3F8F03DDA0719
:1040B00017D500BE15E003F0020301F10808002B3C
:1040C00040460CBF40274FF400774FF6C07618BF2C
:1040D0004FF47E4600F088F8874202D82378D8074C
:1040E00002D50020BDE8F08128466178FFF7F6F898
:1040F0000028F6D0404600F077F887421FD8237892
:104100006288D907CFD43040904228BF10466178EA
:104110000646E0B1626833462846FFF703F90028F7
:10412000C1D03046DEE761783BB162682846FFF7D0
:10413000F9F80028B7D06088D4E71A46F6E7237864
:10414000DB07CED428466178FFF7DAF8C9E70246E4
:10415000E1E700BF2DE9F041B2F5004F9DF818806E
:1041600024D80446C06817460E461D4618B14FF0C5
:10417000FF3103F0B1FF206918B14FF0FF3103F0B8
:10418000ABFF0022C5F30E03E06843EAC833628147
:104190002660A780E380228108B103F0A5FF206993
:1041A00008B103F0A1FF0120BDE8F0810020BDE8C7
:1041B000F08100BF038942899BB292B2808893420A
:1041C00036BFC2EB40029B1A9B189BB2984228BF95
:1041D000184670470289438990B29BB2C01AB0FA60
:1041E00080F04009704700BF038942899BB28088F4
:1041F00092B2934236BFC2EB40029B1A9B189BB20D
:10420000984286BFC01A80B20020704738B5044675
:1042100000690D4618B14FF0FF3103F05DFF2189B1
:10422000638989B29BB2A288994236BFC3EB420030
:10423000C81A401880B250B3824209D291422CBFB2
:10424000891A89188BB29A42638103D89B1A9BB250
:104250009A42FBD9E2882168C2F30E0202FB0311E5
:10426000284603F019FE6189012589B24B1C9BB2D7
:104270009942A2880ED9002302FA05F15B1A9BB27B
:104280002069638108B103F02FFF284638BD054639
:1042900063899BB2B3EB420F4FEA4201F0DBEDE7DB
:1042A0002DE9F047064600698846914618B14FF05F
:1042B000FF3103F011FF338974899BB2A4B2B58832
:1042C000A34236BFC4EB45071F1BFF18BFB2002F28
:1042D0004AD0BD4240D3B94528BFB946A5421FFACE
:1042E00089F703D8641BA4B2A542FBD9B6F806A08F
:1042F0002B1B31689BB2CAF30E029F42924602FB0F
:10430000041123D913FB02F31FFA83F94A464046EE
:104310007D1B03F0C1FD621912FB0AF2316808EB44
:10432000090092B203F0B8FD7289B58892B2D31930
:104330009BB29A421AD96A009B1A9BB23069738168
:1043400008B103F0D1FE3846BDE8F087404607FBD0
:1043500002F203F0A1FDE7E7AB422CBF5B1B5B1948
:104360009CB22F467481B6E773899BB2B3EB450FBD
:104370004FEA4502E2DBDFE7F8B50446C0680E46C7
:1043800018B14FF0FF3103F0A7FE25892389618919
:104390009BB289B2A2888B4236BFC1EB42015B1A45
:1043A0005B189BB29A42ADB208D8E779FF0905D1F4
:1043B000E06808B103F098FE3846F8BD954219D37D
:1043C0002B469B1A9BB29342FBD2E2882068C2F331
:1043D0000E0202FB0300314603F05EFD6B1C9BB234
:1043E0009D42A28812D9002351005B1A9BB201277B
:1043F0002381DDE7E2882068C2F30E0205FB02009C
:10440000314603F049FD0135A288ABB2B3EB420F50
:104410004FEA4201EBDBE8E72DE9F04F164683B0A7
:10442000002A4CD00546C068884618B14FF0FF31CD
:1044300003F052FEEA792F896989D209AB88BFB2AD
:1044400089B240D18F4236BFC1EB4301791AC919F5
:1044500089B2994241D2591A89B28E4228BF0E467A
:10446000B5F806A007EB0609A6EB030BCAF30E0A84
:104470001FFA89F91FFA8BFB9F423C4603D3E41ACB
:10448000A4B29C42FBD21B1B28689BB2B3420AFB1E
:1044900004004BD341460AFB06F203F0FDFCAA8858
:1044A0004F454FEA420302D8B9EB420F03DBA9EBB9
:1044B00003031FFA83F9E868A5F8089088B9304625
:1044C00003B0BDE8F08FB5F806A09E42CAF30E0A0D
:1044D0000DD3002B3FD11E4600E00026E8680028DF
:1044E000EDD003F001FE304603B0BDE8F08F8F42FF
:1044F00036BFC1EB43027A1AD21992B25800324445
:10450000A6EB030B82421FFA8BFB0ADB01EB0309CC
:104510001FFA89F9A9EB0607BFB2B94218D9381AB0
:1045200087B206EB07091FFA89F9A5E713FB0AF31F
:104530005C4414FB0AF49AB24146019203F0ACFCCD
:10454000019A286808EB0201A2B203F0A5FCA6E7D5
:10455000B84291DCE3E7F61A01EB03090AFB06888F
:104560000F461E464FF0000B1FFA89F984E700BF83
:1045700010B50446C06818B14FF0FF3103F0ACFD30
:10458000206918B14FF0FF3103F0A6FD0023E06869
:104590006381238108B103F0A7FD206908B103F00E
:1045A000A3FD012010BD00BF38B5C379B1EBD31F07
:1045B00019D00446C0680D4618B14FF0FF3103F022
:1045C0008BFD206918B14FF0FF3103F085FDE379D1
:1045D000E06865F3C713E37108B103F085FD206956
:1045E00008B103F081FD012038BD00BF08B5104CB3
:1045F00014E001F057FE2369DD68281D01F00AFF71
:10460000A369013BA3612368013B236001F056FECF
:10461000286B01F0F5FD284601F0F2FD2368002B20
:10462000E7D1E369012BF9D901F030FEF6E700BFCD
:10463000AC160020F8B50546294C0F46D4F880602A
:10464000D4F88400043001F0E5FE6B1C1BD0D4F8D4
:10465000843076195E600DD2D4F8A000D4F88410AE
:10466000043101F0BFFED4F8A430B34201D9C4F83C
:10467000A460F8BDD4F89C00D4F88410BDE8F840DC
:10468000043101F0AFBE7FB9D4F88430721E5A6095
:10469000002EEFD1D4F8A000D4F88410043101F03A
:1046A000A1FED4F8A430F8BDD4F88410D4F88C302E
:1046B000D4F8842098688B60D4F88410D0600431DA
:1046C000D4F884204160D4F88400D4F888100432EF
:1046D00004F1880501319A60C4F888104561F8BD7D
:1046E000AC160020514A2DE9F043D2F88070013712
:1046F000C2F88070AFB9D2F8A030D2F89C10C2F8DE
:10470000A010C2F89C30D2F8A8300133C2F8A8300B
:10471000D2F8A0301B68002B76D14FF0FF33C2F8DF
:10472000A430D2F8A4309F4266D3D2F8A0301868E3
:10473000002870D00020DFF8F8E0844649E0D3F884
:104740001480D3E902158D606960D8F80410A14285
:10475000D8F8001008BFC8F804509D6A0139C3F8A2
:1047600014C0C8F800107DB1D3E90718C1F808805B
:10477000C8F804106968B142296808BFC5F8048008
:104780000139C3F828C02960D96AD2F8AC6001EBBE
:10479000810502EB8508B142D8F820600EEB85094F
:1047A000B56888BFC2F8AC10C3E902656C60D8F880
:1047B0001C50B4600135C3F81490C8F81C50D2F8EE
:1047C0008440D2F8A030E46A1B68A14288BF01206F
:1047D0000BB3D2F8A030DB68DB6859681C1D8F4230
:1047E00003F11806ABD2C2F8A410D2F8B030002BF7
:1047F00018BF0120BDE8F083D2F8B0300020002BB4
:1048000018BF0120BDE8F083D2F8A030DB681B6838
:10481000C2F8A43085E74FF0FF33C2F8A430D2F8D5
:10482000B030002B18BF0120BDE8F083AC1600208B
:10483000C81600202DE9F84395000746284689460A
:10484000984601F0D1FC002800F0B68006466820AA
:1048500001F0CAFC0446002800F0AB80043D682249
:104860000021354402F0B4FE25F007052663B9F1B6
:10487000000F4AD099F8003084F83430002B44D02F
:1048800099F8013084F83530FBB399F8023084F898
:104890003630D3B399F8033084F83730ABB399F896
:1048A000043084F8383083B399F8053084F839300F
:1048B0005BB399F8063084F83A3033B399F807308F
:1048C00084F83B300BB399F8083084F83C30E3B1FE
:1048D00099F8093084F83D30BBB199F80A3084F872
:1048E0003E3093B199F80B3084F83F306BB199F8B2
:1048F0000C3084F8403043B199F80D3084F84130E1
:104900001BB199F80E3084F84230089B261D042B09
:1049100028BF04239946E362304601F051FD04F1BB
:10492000180001F04DFDC9F10503A3614246394667
:1049300028462461646201F095FC099B206003B164
:104940001C603D4D01F0AEFCAB690133AB61D5F8A5
:104950008430002B3CD0D5F8F020E36A82B305F117
:104960001C07D5F8F4200132C5F8F420D5F8AC20A6
:104970009A4238BFC5F8AC3003EB830307EB8307DB
:1049800005EB83031A6A9168A260E1604E6096604D
:10499000DA6967610132DA6101F090FCD5F8F03034
:1049A0002BB1D5F88420E36AD26A9A4219D3012048
:1049B00004E0304601F024FC4FF0FF30BDE8F883FE
:1049C000D5F88420D26A9A4298BFC5F88440C6E7D9
:1049D000C5F88440AB69012B06D0E36A05F11C07DA
:1049E000BFE701F053FCE2E705F11C07B84605F10B
:1049F0008009404608F1140801F0D6FCC145F8D101
:104A0000DFF83880404608F1140901F0CDFC484633
:104A100001F0CAFC08F1280001F0C6FCA8F1B000C2
:104A200001F0C2FCA8F12C0001F0BEFCC5F8A0808A
:104A3000E36AC5F89C9094E7AC160020601700204C
:104A400070B50546254C01F02DFCC5B32E1D304632
:104A500001F0E0FCAB6A1BB105F1180001F0DAFCD3
:104A6000D4F8F430D4F884200133AA42C4F8F430E6
:104A70002CD0A369013BA361D4F8A0301B68CBB153
:104A8000D4F8A030DB681B68C4F8A43001F016FC31
:104A9000D4F88430AB4205D0286B01F0B1FB284636
:104AA00001F0AEFBD4F8F0301BB1D4F88430AB4247
:104AB00008D070BD4FF0FF33C4F8A430E6E7D4F857
:104AC0008450C3E7BDE8704001F0E0BB31460448C4
:104AD00001F07AFC236801332360D7E7AC1600208D
:104AE000B016002010B5044601F0DCFB24B1E46AE6
:104AF00001F0E4FB204610BD034BD3F88440E46A88
:104B000001F0DCFB204610BDAC16002010B50446B9
:104B100001F0DEFB24B1E46A01F0DEFB204610BDAB
:104B2000034BD3F88440E46A01F0D6FB204610BD65
:104B3000AC16002004292DE9F04128BF04210446C9
:104B40000D4601F0AFFB8CB3E36A9D4215D0D4E96A
:104B500005122B4E03EB830306F11C07D6F88400E5
:104B600007EB83030DD8A04212D0002AE56221DBB7
:104B7000C5F105059942A5611ED0BDE8F04101F0DF
:104B80009DBBA042F1D0D6F88400C06AA842ECD206
:104B9000002AE56202DBC5F10505A56199422DD029
:104BA00001F074FBBDE8F04101F088BB144BD3F871
:104BB0008440C9E79942E0D1002504F10408404649
:104BC00001F028FCE36AD6F8AC20934203EB8302A1
:104BD00088BFC6F8AC3006EB8203196A07EB820780
:104BE000DA6988680132A160E060C0F80480C1F829
:104BF00008806761DA61002DD2D1BEE70125DCE7CC
:104C0000AC16002070B50446534D01F04BFB002C50
:104C10004AD0261D304601F0FDFBA36A1BB104F10A
:104C2000180001F0F7FB31464C4801F0CDFB94F839
:104C30006430012B04BF002384F8643094F865309D
:104C4000012B04BF002384F8653094F86630012BF3
:104C500004BF002384F8663001F030FBD5F8F03053
:104C60009BB9D5F88430A34200D070BDD5F8F030A0
:104C70002BBBD5F88810AA6991421DD0D5F8F83021
:104C80000BB30123C5F8B03070BD01F00BFBD5F8B4
:104C9000A0301B685BB1D5F8A030DB681B68C5F895
:104CA000A43001F00BFBDCE7D5F88440B1E74FF00E
:104CB000FF33C5F8A430F4E7C5F8843070BDBDE813
:104CC000704001F0E3BAC5F8B030D5F8AC3003EB72
:104CD000830205EB8202D1699A0031BB591E01EBB8
:104CE000810205EB8202D0698A0098BB991E01EB14
:104CF000810205EB8202D0698A0058BBD91E01EB04
:104D0000810205EB8202D0698A0018BB191F01EBF2
:104D1000810205EB8202D0698A00D8B9053B03EB1A
:104D2000830205EB8202D2699A001A4405EB8204E1
:104D3000216A48680A49206201EB820208329042E7
:104D400008BFA06AC26808BF2062C5F88420C5F801
:104D5000AC3070BD0B46E8E7AC16002034170020DD
:104D6000C8160020F8B5204DD5F8843083420CD009
:104D7000044650B101F096FA626905F188039A423F
:104D800004D0BDE8F84001F099BAF8BDA36A05F176
:104D9000DC029342F5D0002BF3D1271D384601F0F9
:104DA00039FBE36AD5F8AC2003EB830C934205EBA7
:104DB0008C02166A88BFC5F8AC300C48D16900EB8C
:104DC0008C00D6F808C00131A660C4F80CC0CCF83D
:104DD0000470B7606061D161D5F88420D26A9342D3
:104DE000CFD901F053FACCE7AC160020C81600204A
:104DF0002DE9F041044601F06BFA234E626906F199
:104E000088039A42054606D00027284601F064FA36
:104E10003846BDE8F081A36A06F1DC008342F3D096
:104E2000002BF1D1D6F8F8704FBBD6F88430E26A87
:104E3000DB6A9A4203D901231F46C6F8B03004F159
:104E40000408404601F0E6FAE36AD6F8AC200F49C0
:104E5000934288BFC6F8AC3003EB830306EB8306AE
:104E6000306AF26901EB830381680132A060E1607E
:104E7000C1F80480C0F808806361F261C5E704F1FD
:104E8000180101F0A1FABFE7AC160020C8160020F7
:104E90002DE9F8434FF4007001F0A6F9002862D024
:104EA0000546682001F0A0F9044600285FD00021E3
:104EB000682202F08DFB544A271D05F5FE736263DC
:104EC0003846256323F0070501F07AFA04F118004B
:104ED00001F076FA05230022A36128464B4924619C
:104EE000646201F0BFF94A4D2060C5F8FC4001F052
:104EF000D9F9AB690133AB61D5F88430002B45D0CB
:104F0000D5F8F020E36A002A38D005F11C06D5F860
:104F1000F4200132C5F8F420D5F8AC209A4238BF0D
:104F2000C5F8AC3003EB830306EB830605EB830384
:104F30001A6A9168A260E1604F609760DA69666101
:104F40000132DA6101F0BAF9D5F8F0303BB1D5F8A9
:104F50008420E36AD26A9A4201D201F097F901F003
:104F600035F801281BD02B4B1B68BDE8F883284679
:104F700001F046F9274B1B68BDE8F883D5F884207B
:104F8000D26A9A4298BFC5F88440BEE7C5F884400B
:104F9000AB69012B10D0E36A05F11C06B7E772B6C6
:104FA0004FF0FF320023C5F8A420C5F8F000C5F883
:104FB000803001F0D5F9D6E705F11C06B04605F1C1
:104FC0008009404608F1140801F0EEF9C845F8D10F
:104FD000DFF84480404608F1140901F0E5F948463D
:104FE00001F0E2F908F1280001F0DEF9A8F1B000C3
:104FF00001F0DAF9A8F12C0001F0D6F9C5F8A0808B
:10500000E36AC5F89C9082E749444C45ED450010A1
:10501000AC1600207C8500106017002072B60022BC
:10502000024BC3F8F02001F02FB900BFAC160020EE
:10503000034AD2F8F8300133C2F8F830704700BFA5
:10504000AC1600202DE9F0414C4C01F02BF9D4F8BE
:10505000F830013BC4F8F830D4F8F870002F73D161
:10506000A369002B70D0D4F8DC30002B4FD04FF068
:10507000010804F11C0ED4F8E830DB689A6A03F1E9
:1050800018055668D3E90701AE428160486008BF41
:10509000516011689F620139116058691E1D456891
:1050A000D3E90212B5428A600568516008BF4260C8
:1050B000DA6A013D02EB8201056004EB810CD4F851
:1050C000AC00DCF820508242A86888BFC4F8AC204D
:1050D000C3E902504660DCF81C000EEB8101013090
:1050E000AE605961CCF81C00D4F88430DB6A9A4277
:1050F00030D9C4F8B080D4F8DC30002BBBD1D4F860
:10510000A0301B687BBB4FF0FF33C4F8A430D4F849
:105110000051B5B1012606E0FFF7E4FA08B1C4F882
:10512000B060013D0BD0D4F8F830002BF4D0D4F8A7
:105130000031013D03F10103C4F80031F3D1C4F89B
:105140000051D4F8B030ABB9002401F0B7F82046D4
:10515000BDE8F081D4F8DC30002B8CD1D4F8A0303D
:105160001B68002BCFD0D4F8A030DB681B68C4F8D4
:10517000A430CCE701F08AF80124E6E7AC16002061
:10518000F8B5234DD5F8F8300133C5F8F830036889
:10519000D5F880605C182CBF01210021B34207D9EB
:1051A00039B904600024FFF74DFFF8B12046F8BD7F
:1051B00009B9A642F5D2D5F880700460D5F884000C
:1051C000BE1B043001F026F93444D5F88430A742E0
:1051D0005C600FD9D5F89C00D5F88410043101F03B
:1051E00001F90124FFF72EFF0028DFD101F04EF86E
:1051F0002046F8BDD5F8A000D5F88410043101F0A0
:10520000F1F8D5F8A4309C42EBD2C5F8A440E8E709
:10521000AC16002008B901F039B870B5194D044634
:10522000D5F8F8300133C5F8F830D5F88060D5F8F6
:105230008400043001F0EEF8D5F88430A4195C60E5
:1052400010D2D5F8A000D5F88410043101F0CAF8C6
:10525000D5F8A4309C4238BFC5F8A440FFF7F2FE51
:1052600058B170BDD5F89C00D5F88410043101F018
:10527000B9F8FFF7E7FE0028F3D1BDE8704001F070
:1052800005B800BFAC160020014BD3F88000704772
:10529000AC160020014BD3F880007047AC160020FC
:1052A000014B9869704700BFAC16002008B134303C
:1052B0007047024BD3F8840034307047AC1600209E
:1052C00038B50A4C0546D4F8F8300133C4F8F83044
:1052D00000F0E8FFD4F800312B44C4F8003100F0AE
:1052E000EDFFBDE83840FFF7ADBE00BFAC160020B3
:1052F000064BD3F8F8200AB9FFF7F4B9D3F8002128
:1053000000200132C3F80021704700BFAC16002016
:105310002C4BD3F8F8201AB10122C3F8B020704703
:1053200010B4C3F8B020D3F8AC2002EB820103EB39
:105330008101C869910038BB501E00EB800103EB6E
:105340008101CC698100002C39D1901E00EB8001D5
:1053500003EB8101CC6981008CBBD01E00EB800186
:1053600003EB8101CC6981004CBB101F00EB800175
:1053700003EB8101CC6981000CBB053A02EB820191
:1053800003EB8101C9699100114403EB810CDCF846
:10539000200044680C48CCF8204000EB8101083123
:1053A0008C4208BFDCF82840E16808BFCCF82040F8
:1053B000C3F884105DF8044BC3F8AC207047024674
:1053C000E2E700BFAC160020C816002070B50D46FD
:1053D000234CD4F88410183101F004F8D4F880601C
:1053E000D4F88400043001F015F86B1C1BD0D4F8FD
:1053F0008430AD195D6008D3D4F89C00D4F88410D3
:10540000BDE87040043100F0EDBFD4F8A000D4F83E
:105410008410043100F0E6FFD4F8A4309D4238BF78
:10542000C4F8A45070BDD4F88410D4F88C30D4F8EB
:10543000842098688B60D4F88410D0600431D4F84C
:1054400084204160D4F88400D4F88810043204F138
:10545000880501319A60C4F88810456170BD00BFAD
:10546000AC160020F8B5304C41F00041D4F884501F
:10547000D4F88430A96115464268D4F884E0DA6132
:10548000D4F88470D4F88460D4F884C00368916838
:10549000013318361837CEF820104F609660CCF8DC
:1054A00028000360D4F88060D4F88400043000F051
:1054B000B1FF6B1C1BD0D4F88430AD195D6008D3EC
:1054C000D4F89C00D4F88410BDE8F840043100F012
:1054D00089BFD4F8A000D4F88410043100F082FF12
:1054E000D4F8A4309D4238BFC4F8A450F8BDD4F815
:1054F0008410D4F88C30D4F8842098688B60D4F869
:105500008410D0600431D4F884204160D4F8840041
:10551000D4F88810043204F1880501319A60C4F887
:1055200088104561F8BD00BFAC16002094462DE9F7
:10553000F041324C0D46D4F884304168D4F8848070
:10554000D961D4F88470D4F88460D4F884E0036816
:105550008A68183718360133C8F8202057608E60E3
:10556000CEF828000360BCF1000F23D0D4F88030BF
:10557000D4F8840004F18805043000F04BFFD4F81F
:105580008410D4F88C30D4F8842098688B60D4F8D8
:105590008410D0600431D4F884204160D4F88400B1
:1055A000D4F88810043201319A60C4F8881045613B
:1055B000BDE8F081D4F88060D4F88400043000F0B5
:1055C00029FFD4F88430AD195D6008D3D4F89C006D
:1055D000D4F88410BDE8F041043100F003BFD4F8E2
:1055E000A000D4F88410043100F0FCFED4F8A430FC
:1055F0009D4238BFC4F8A450BDE8F081AC1600202D
:10560000F0B40026C368DB68996AD3E907028260B8
:105610005060486803F11805A842086808BF4A604E
:105620000138264ADC6A9E620860D2F8F810002928
:1056300033D1D3E902505969A86045604D681F1DF8
:10564000BD4208BF4860086804EB840C013808605C
:10565000D2F8AC101A4DA14202EB8C010E6A38BF91
:10566000C2F8AC40C86905EB8C05D6F808C001301B
:105670009E60C3F80CC0CCF80470B7605D61C8616F
:10568000D2F88430DB6AA34238BF0123F0BC36BFB6
:1056900018460020C2F8B0307047D2F8DC00D2F8CB
:1056A000E0100130C2F8DC008868D96118624560FA
:1056B0008D6002F1DC019962E2E700BFAC160020C8
:1056C000C8160020F0B4D0E901540026026941F068
:1056D000004101605168C36881421168AC60656037
:1056E00001F1FF3108BF5460D3E902540661116033
:1056F0005A691F1D106851680138B9421549AC60DC
:10570000656008BF54601060DA6AD1F8AC0002EB43
:10571000820C824201EB8C00066A88BFC1F8AC2083
:105720000D4DC46905EB8C05D6F808C001349E60A8
:10573000C3F80CC0CCF80470B7605D61C461D1F8E7
:105740008430F0BCDB6A9A4284BF0123C1F8B030D8
:10575000704700BFAC160020C816002010B50446E4
:1057600000F0A0FD054BD3F8A820D3F88030C4E9A1
:105770000023BDE8104000F0A1BD00BFAC16002022
:10578000034BD3F8A820D3F88030C0E9002370473A
:10579000AC160020F8B50D46044600F083FD2B68DA
:1057A000124A591CD2F880001AD0D4E90071D2F8FC
:1057B000A860B74208D0814206D8002301242B609C
:1057C00000F07CFD2046F8BD461AB342F5D91B1AFD
:1057D0000B44D2F8A810D2F880202B60C4E9001244
:1057E000002400F06BFD2046F8BD00BFAC16002081
:1057F0000122024BC3F8B020704700BFAC16002056
:10580000042903D818B100EB810042647047024BB1
:10581000D3F88400F7E700BFAC16002004290BD8AA
:1058200018B100EB8100406C7047044BD3F8840042
:1058300000EB8100406C704700207047AC160020E0
:10584000014BD3F884007047AC160020064BD3F808
:10585000F02032B1D3F8F800B0FA80F040094000EF
:1058600070470120704700BFAC160020064AD2F8EE
:105870008410D2F88430D2F88420DB6A8869C3F1BE
:1058800005039361704700BFAC1600202DE9F0417D
:1058900004461C4D8846164600F004FDD5F88430B9
:1058A00004F1160753F8273033B90121D5F88430B5
:1058B000234483F86410FEB900F000FD00F0F2FC10
:1058C000D5F8843053F827603EB1D5F88430B8F16C
:1058D000000F0DD0002243F827200022D5F8843095
:1058E000234483F8642000F0E9FC3046BDE8F081F1
:1058F000721E43F82720F0E73046FEF79BFE00F0CB
:10590000C5FCD9E7AC1600202DE9F0410446264D30
:105910001E468846174600F0C5FCD5F8843023445F
:1059200093F86430022B0FD00121D5F8843003EBBB
:1059300084039A6D22EA08029A65D5F884302344DC
:1059400083F86410069BF3B900F0B8FC00F0AAFCE1
:1059500036B1D5F8843004F1160253F822303360A2
:10596000D5F88430234493F86430022B11D00026FC
:105970000022D5F88430234483F8642000F09EFC94
:105980003046BDE8F0811846FEF754FE00F07EFC7C
:10599000DAE7D5F88430012603EB84039A6D22EA16
:1059A00007029A65E4E700BFAC1600202DE9F0413C
:1059B000DDF8188004460D4617461E4600F072FCBE
:1059C000B8F1000F05D005F1160354F82330C8F8DC
:1059D00000300220611991F86420731E81F8640080
:1059E000D2B2032B08D8DFE803F0480F0402022AE2
:1059F00049D0163544F82570012A0DD0012400F055
:105A00005DFC2046BDE8F08104EB8505AB6D012A05
:105A100003F10103AB65F1D1D4E9021263698A6035
:105A200051605968271DB942196808BF5A60013989
:105A3000164A1960E36AD2F8AC1003EB830C8B4270
:105A400002EB8C010E6A88BFC2F8AC30104DC869F9
:105A500005EB8C05D6F808C00130A660C4F80CC070
:105A6000CCF80470B7606561C861D2F88420D26A4E
:105A70009342C3D900F00AFCC0E704EB8505AB6D87
:105A80003B43AB65B8E70024B9E700BFAC16002084
:105A9000C81600202DE9F041DDF8188004460D46B7
:105AA00017461E4600F014FCB8F1000F05D005F1B2
:105AB000160354F82330C8F80030731E022662190A
:105AC00092F8641082F86460C9B2032B08D8DFE84A
:105AD00003F03B0F0402022966D0163544F8257006
