:020000041000EA
:10000000002008205D0100101301001015010010F0
:100010001101001011010010110100101101001058
:10002000110100101101001011010010C5960010FF
:1000300011010010110100102197001065970010A8
:100040001D0100101D0100101D0100101D010010F8
:100050001D0100101D0100101D0100101D010010E8
:100060001D0100101D0100101D0100101D010010D8
:100070001D0100101D0100101D0100101D010010C8
:100080001D0100101D0100101D0100101D010010B8
:100090001D0100101D0100101D0100101D010010A8
:1000A0001D0100101D0100101D0100101D01001098
:1000B0001D0100101D0100101D0100101D01001088
:1000C0001D0100101D0100101D0100101D01001078
:1000D0001D0100101D0100101D0100101D01001068
:1000E0001D0100101D0100101D0100101D01001058
:1000F0001D0100101D0100101D0100101D01001048
:100100001D0100101D0100101D0100101D01001037
:1001100000BE00BE00BE00BE00BE00BEEFF3058004
:10012000103800BEF2EB88712CA9001058A90010FD
:10013000A801001090A31AE7D3DEFFFF42012110AF
:10014000FF01000030BE0000793512AB4FF0000017
:100150002049086006C881F3088810474FF05040D6
:10016000006810B14FF00000F2E70FA40ECC002998
:1001700002D000F015F8F9E71749184A002000E00E
:1001800001C19142FCD1002080F30A8814498847BC
:10019000144988471449884700BEFDE701C901C2D8
:1001A0009A42FBD3704700BF58A9001010010020ED
:1001B0002017002068BF0010000008200000082061
:1001C00068BF001000100820001008200000000088
:1001D0007047000008ED00E0201700202C280020C8
:1001E00061340010C103001059340010F8B500BF8D
:1001F0000348044B834202D0034B03B118477047B6
:10020000201700202017002000000000064B07499F
:10021000C91A891048BF0131491003D0044B0BB1F2
:1002200001481847704700BF201700202017002002
:100230000000000010B5064C237843B9FFF7D8FF43
:10024000044B13B10448AFF300800123237010BDA9
:10025000C0190020000000006CA4001008B5044B79
:100260001BB104490448AFF30080BDE80840CDE766
:1002700000000000C41900206CA4001000B50D207F
:1002800083B000F06BF90E2000F068F90F2000F049
:1002900065F94FF001060D2346EC44300E2346EC81
:1002A00044300F2346EC44300023244D1C46ADF867
:1002B00006300CE00D2344EC40300E2344EC40307B
:1002C0000F2346EC40304FF4967007F0EDFE4FF0F0
:1002D000FF3228680DF1060106F02AFA0128F2D152
:1002E0006FF47A71BDF806305A1EB2F57A7F194460
:1002F000E0D3B1F5AF6F09D20D2344EC40300E23AB
:1003000046EC40300F2344EC4030DCE7B3F5166F89
:100310004FF00D0308D946EC40300E2344EC40303A
:100320000F2344EC4030CEE744EC40300E2344EC45
:1003300040300F2344EC4030C5E700BF2C1E0020A6
:1003400080B582B005F038FF1F211A2000F0C4F8F4
:1003500000224FF0040811461A20144C00F0DAF87D
:1003600000211A2000F0EAF82368114A03F47043D0
:10037000104F114E114D1360C6F800802368DB0545
:10038000FCD56368284699B2ADF8063003F060FAF0
:1003900000234FF0FF3238680DF1060105F09EFF93
:1003A0004FF4967007F080FEE6E700BF00000A40B9
:1003B00000100A402C1E002000200A4070A40010EB
:1003C00000B51C4B87B002AC0FCB84E80F000022B5
:1003D0000221052005F042FF174B0125186003F0AC
:1003E0006BF900F057F8064600234FF48072CDE910
:1003F00000561249124807F061F900F04BF8064622
:1004000000234FF48072CDE900560E490E4807F0E4
:1004100055F900F03FF8022506464FF48072234656
:100420000A49CDE900560A4807F048F907F06CFC84
:10043000FEE700BF8CA600102C1E002080A4001038
:100440004103001090A400107D020010A0A4001031
:100450005504001070B50446006800F07FF84FF0B6
:100460000102236842EC4430012600254FF00102CE
:1004700042EC4030A068267107F016FE4FF00002F3
:10048000236842EC4030A068257107F00DFE236818
:10049000ECE700BF064A1378092B07D80133DBB21B
:1004A0000448591E137000EB81007047002070470C
:1004B00021280020AC27002010B507F0ADFE04462F
:1004C00007F0AAFEA042FBD0024A13680133136072
:1004D00010BD00BF9427002010B44FF480740C4B63
:1004E00053F8202003EB8003C00082F0400200F1AB
:1004F000804003F5805C02F0C00200F5203003F577
:100500004053CCF8002041601C605DF8044B7047FC
:100510000480034010B4084CC90041EA820154F839
:10052000202004EB8003514003F5805301F00C01BF
:100530005DF8044B1960704704800340064B40226D
:1005400003EB800319B103F500531A60704703F5FC
:1005500040531A60704700BF0480034030B44FF02E
:10056000000343EC440043EC400005254FF4807445
:100570000B4BC20053F8201003EB800081F04001C8
:1005800002F1804303F5203301F0C00200F58051F1
:1005900000F540500A605D60046030BC704700BFE9
:1005A000048003400FB400B583B0049C074803F0F7
:1005B000CDF83CB105A92046019102F01DFF044889
:1005C00003F0C4F8012002F02FFF00BFB0A4001018
:1005D000C0A4001070B58646EFF3108572B6124CB9
:1005E000D4E8CF6F0120002EFAD1C4E8460F002EC8
:1005F000F6D1BFF35F8F4FF0010CC80801F007037D
:100600000CFA03F31EF800C01CEA030608D14CEAFA
:10061000030C0EF800C0C4E88F6F85F3108870BD1E
:100620001046FFF7BFFF00BF131F0020F8B5EFF320
:10063000108572B6234CD4E8CF7F0126002FFAD163
:10064000C4E8476F002FF6D1BFF35F8F9A4227D8D7
:100650000126D70810F807E002F0070C06FA0CFC98
:100660001EEA0C0F00EBD2070DD125E04FEAD20EA7
:1006700010F80EE002F0070C06FA0CFC1EEA0C0F54
:1006800000EBD20718D001329342EFD24FF0FF3087
:100690000023C4E88F3F85F31088984207DBF8BD3C
:1006A0000023C4E88F3F85F310884FF0FF30002906
:1006B000F5D00698FFF776FF4EEA0C0E104687F845
:1006C00000E0E5E7131F0020044A1078431CDBB26A
:1006D000182B28BF10231370704700BF2011002073
:1006E00010B5054C82B001461F2318220094034820
:1006F000FFF79CFF02B010BDC4A400102C23002003
:100700004FF0E022936843F000539360704700BFBE
:100710000021044B03F12002C3E88F1F01339342F1
:10072000FAD17047081F00204FF0E0234FF08032CD
:10073000C3F80024C3F80424C3F80824C3F80C2425
:10074000C3F81024C3F81424C3F81824C3F81C24D5
:10075000C3F82024C3F82424C3F82824C3F82C2485
:10076000C3F83024704700BF012300F01F029340FC
:10077000400941B1800000F1604000F56140C0F8DF
:10078000803103607047024A203042F820307047C1
:1007900000E100E00123064A410952F8212000F05F
:1007A0001F008340134214BF01200020704700BF88
:1007B00000E100E001224309034900F01F008240EC
:1007C000403341F82320704700E100E0054A103033
:1007D0009268054B52F82000C01A2F288CBF0020C9
:1007E0000120704700ED00E024110020F8B50D460F
:1007F000EFF3108772B6124ED6E8CF2F0123002AEE
:10080000FAD1C6E8423F002AF6D1BFF35F8F0D4B05
:1008100000F110049B680C4A53F82430934203D033
:10082000994201D001F09CF8064B9B6843F8245094
:10083000BFF35F8F0023C6E88F3F87F31088F8BDB2
:10084000111F002000ED00E01D0100102DE9F04F08
:1008500081468B46164683B0EFF3108372B6DFF8FD
:10086000D0A10093DAE8CF1F01230029FAD1CAE80A
:10087000413F0029F6D1BFF35F8F664B93F90040EB
:10088000002CC0F2A080644D04EB440705EB870800
:1008900098F8061009F110091970604BBF009B68A9
:1008A00053F829006300411B2F292FD95C49884246
:1008B00040F0A4801C445B4B02372F44043BDB1BFD
:1008C000C3F34A036FEAC3434FF421416FEAD343B2
:1008D00025F8241005EB840463804BF60153A380B4
:1008E000FF2348F00100E671C4F808B0A3714B4B38
:1008F0009B6843F82900BFF35F8F0023CAE88F3F4E
:10090000009B83F3108803B0BDE8F08F20F0010E48
:100910009EF80710B1422ED84FF42143EB53414BC0
:10092000B91C2944043B04375B1A2F44AEF104017F
:100930003D4CC91BC1F34A012143A8F80410C3F37D
:100940004A033A492343A8F802304AF6AA207346DC
:100950005B1B5B415843000D88F8076088F8060070
:10096000C8F808B048F00100CEF80010BFE7D17910
:10097000B1422ED996469EF906C00CEB4C02BCF152
:10098000000F05EB8202F2DA4BF601510EF1040280
:10099000A8F10407BF1AC7F34A076FEAC7476FEA0F
:1009A000D7478EF8064003EB0408204C05EB88037C
:1009B000AEF8047045F82840998083F806C0DE71CF
:1009C000C3F808B093E700F0CBFF124B93F9004057
:1009D00059E7724632F8041F490514D4491502310B
:1009E00002EB410101916FF00701C91B019F491BF7
:1009F0003944C1F34A0141F46041C9E7019300F071
:100A0000AFFF019B56E701F5FF1101F5FF511F31C3
:100A1000E4E700BF252800202411002000ED00E0BD
:100A20001D0100105411002000E0FFFF0148804725
:100A3000111F00202DE9F04F83B0EFF3108A72B63A
:100A4000744ED6E8CF2F0123002AFAD1C6E8423FE0
:100A5000002AF6D1BFF35F8F6F4B00F110089B683F
:100A60006E4A53F8285095423FD08D420C464AD0EA
:100A70006B4FEB1B2F2B38D801214FEA50194FEA4F
:100A8000890909F1604909F5614900F01F0301FA7C
:100A900003F0D9F80030C9F8800000EA030BBFF377
:100AA0005F8FEFF30581C9B279B3884577D125F01F
:100AB000010EDEF808C0644505D17CE0D3F808C01B
:100AC000644532D09E469EF9062002EB4203002A7E
:100AD00007EB8303F2DA644500F08180BBF1000F7D
:100AE00020D0C9F88001C9F800004B4B9B6843F83F
:100AF0002850BFF35F8F0023C6E88F3F8AF310882A
:100B000003B0BDE8F08F1546EFE725F0010EDEF8E3
:100B100008C06445D7D19EF906407346002C08DA18
:100B2000154666E0C9F88000DFE793F90640002C1F
:100B300056DB04EB440C07EB8C0CDCF8082061005E
:100B40009A609CF80720DA719CF90620002A9A71B5
:100B50005DDBBCF80420520504D502F5FF1202F556
:100B6000FF521F32521502F1020C4FF0040E0C22FC
:100B700012FB04E202EB4C026FF0070C3A44ACEBC0
:100B8000030C6244C2F34A0242F460429A80254B4D
:100B900021441A7807EB81011C708A719EE7CDE928
:100BA000000100F0DDFEDDE9000125F0010EDEF8B8
:100BB00008C0644587D19EF906407346002CB8DA18
:100BC000194A1A4CD21A083AC2F30A316FEA015193
:100BD0006FEA115144EA5202DA8099807EE7734647
:100BE0000029EDD1FF228EF806204BF60152AEF817
:100BF00004200C4C4AF6AA2294F800C01946C91BDE
:100C000049414A43120D83F806C0227066E74BF64D
:100C10000152BBE7111F002000ED00E01D01001094
:100C200024110020252800205E11002000F8FFFF7D
:100C3000F0B5EFF30585EDB2EFF3108C72B62649EF
:100C4000D1E8CF2F0123002AFAD1C1E8423F002A80
:100C5000F6D1BFF35F8F214E40F0010EB4684AF623
:100C6000AA2354F825701E4A0446A41A644163431B
:100C70001B0D77455BB21BD092F906409C421CD0FD
:100C800092F912409C4223D092F91E409C4221D0FE
:100C900092F92A409C4208BF03240FD0114A002435
:100CA000157813708571C1E88F4F8CF31088F0BDF3
:100CB000B2680D4C42F82540F0E7002404EB4404F0
:100CC00002EB8402FF2494714BF601549480E5E713
:100CD0000124F3E70224F1E7111F002000ED00E0FA
:100CE00024110020252800201D01001010B5074CFC
:100CF00082B001460523002200940548FFF796FCC8
:100D00000028A8BFC0F1330002B010BDE0A400105D
:100D100029280020014B0B4403607047081F002066
:100D200070B5104C104DAC420ED2FF26236863B153
:100D3000FFF7CAFC01462046FFF7ECFFA680BFF391
:100D40005F8F0834AC42F1D370BDFFF7BDFC0146A4
:100D50002046FFF7DFFF2671BFF35F8F0834AC42F8
:100D6000E4D370BD181700202017002010B50446EA
:100D7000FFF7AAFC01462046FFF7CCFFFF232371B3
:100D8000BFF35F8F10BD00BF10B504460120FFF711
:100D9000A7FC034B03442360BFF35F8F10BD00BF6C
:100DA000081F0020024B0B440360BFF35F8F7047A6
:100DB000081F00200D4B1A68EFF3108172B6D2E8BD
:100DC000CFCF0120BCF1000FF9D1C2E84C0FBCF12C
:100DD000000FF4D1BFF35F8F00221B68C3E88F2F91
:100DE00081F3108840BF002000217047FC270020BD
:100DF0002DE9F04F2DED028B85B0EFF30583DBB2CB
:100E0000103B9A0818BF01224FF0010103F00300C4
:100E100018BFAF4DAF4B08BFAF4D00EB820253F888
:100E2000226001FA00FB05F541539FEDA78B01906D
:100E3000C3F804B02EE0B388180440F19280B3796F
:100E4000002B40F0DC80B6F908100029C0F21D81AB
:100E5000736901EB410103EBC103D3E90247B7F129
:100E6000FF3F08BFB4F1FF3F0DD0019B05EB8301AD
:100E7000AB6A0A69D21AE31A934203D32B6A13EAC4
:100E80000B0F00D10C61284600F032FBA042B941A3
:100E9000C0F2FB80B6F90830C5F83CB0002B0093D7
:100EA000C9DBD6F8149003EB430A284609EBCA07BE
:100EB000D7E9024800F01CFBA04271EB0801BADB45
:100EC000B8F1000FC0F2C380D7E90431834A9342DE
:100ED00000F0ED807A88B6F9080092B242EA00404C
:100EE000984702460B4652EA030100F0B080002BFF
:100EF00080F2D180B4EB020E68EB030839F93A3086
:100F0000C7E902E8002B96DB716903EB430201EBB2
:100F1000C202D2E90270BE4578EB000C4FEA4302F0
:100F200089DBB4462CF8083F0BE031F93230A44697
:100F3000002B0DDB03EB430001EBC0005A00D0E9AE
:100F40000270BE451A4478EB000001EBC204ECDAF3
:100F500029F83A30009BACF80030B38818043FF50C
:100F60006EAF3369EFF3108272B6D3E8CF0F012171
:100F70000028FAD1C3E8401F0028F6D1BFF35F8FE5
:100F80004FF6FF74B0880023316900B2B480C1E825
:100F90008F3F82F310889842FFF651AF0746A9466B
:100FA000746906F1080807EB470E04EBCE03D3E99A
:100FB0000250B6F90830C446002B13DBB246009746
:100FC00004E034F936309446002B09DB03EB43068A
:100FD00004EBC602D2E90271BD4270EB0101F0DA06
:100FE0005646009FACF8007034F93E7024F83E304D
:100FF000002FD8DAB3794D46002B3FF424AF0023FD
:10100000B371B6F9083006F10808591C3DD01946ED
:10101000776903E080465A1C3FF417AF03EB4302A5
:1010200007EBC200B0F802C01C461CF4004F9E46FD
:1010300037F93230EED08C4280ED028B05D0A8F823
:101040000030318927F8321034817146E3E739F8EE
:101050003A3033813369EFF3108272B6D3E8CF0FA1
:1010600001210028FAD1C3E8401F0028F6D1BFF3C0
:101070005F8F7388316929F83A30009B73800023B1
:10108000C1E88F3F82F31088D5E640BF05B0BDECC4
:10109000028BBDE8F08F2846CDE9022300F028FA44
:1010A000029A039B10EB020E43EB010826E7084669
:1010B0000B69029198470028C9D00299D1E9002311
:1010C00011E700BFAFF30080FFFFFFFFFFFFFFFF4F
:1010D00000800B40D427002000000B40F10D0010D1
:1010E0002DE9F84F364C25692DB1BDE8F84F0A219E
:1010F0003448FFF70FBEDFF8E4800321404600F0DC
:10110000E5F90326C4F80C80FFF7DEFA4FF0504CE7
:101110002D4B267003442361DCF800300F216370EF
:10112000636961801D834FF00405A3F878504FF088
:101130000505A3F890504FF00605A3F8A8504FF00E
:1011400007050E214FF6FF7208274FF00A0EA3F88D
:10115000C0504FF001094FF00C0C4FF0020B4FF054
:10116000090A0D204FF00B05A3F868111749A2805A
:10117000A3F808E1A160A3F848B0A3F8F0A0A3F891
:101180002051A3F838C1A3F85001A3F83090A3F878
:101190006060A3F8D8701A800D4B3046C8F82070F4
:1011A0000C49DC60FFF722FB49463046FFF7DCFACA
:1011B000094B0A211F640348BDE8F84FFFF7AABD99
:1011C0006C110020FC270020081F0020FFFF1000EA
:1011D000D4270020F10D001000200B4000000B4030
:1011E000004870476C110020F8B59DF82070044647
:1011F00016461D4637B900F083F9864265EB0101BA
:1012000000295CDB2369EFF3108772B6D3E8CF1FA8
:1012100001220029FAD1C3E8412F0029F6D1BFF3FA
:101220005F8FB4F902C063690CEB4C01BCF1000F95
:101230004FEAC10203EBC10138DB985A4FF0000EB0
:1012400060802069C0E88FEF87F310880698C1E9B5
:10125000026508610798486148880130C0F30E00B4
:10126000012838BF0120488040EA0C402169EFF393
:10127000108572B6D1E8CF7F0126002FFAD1C1E8E0
:10128000476F002FF6D1BFF35F8FA1889952A4F862
:1012900004C02369C3E88FEF85F310880122E36857
:1012A000217803F501538A405A60F8BD0023226972
:1012B000C2E88F3F87F310884FF0FF30F8BD384603
:1012C000F8BD00BF0146F0B50069EFF3108772B6B4
:1012D000D0E8CF5F0124002DFAD1C0E8454F002DA2
:1012E000F6D1BFF35F8FB1F902E04C690EEB4E0C03
:1012F000BEF1000F4FEACC0504EBCC0C3DDB605B8C
:10130000002648800869C0E88F6F87F31088BCF812
:101310000200CCE902230130C0F30E00012838BFDF
:101320000120059BACF80200CCF81030069B40EA87
:101330000E40CCF814300B69EFF3108272B6D3E88C
:10134000CFCF0127BCF1000FF9D1C3E84C7FBCF12E
:10135000000FF4D1BFF35F8F8B886353A1F804E0D3
:101360000B69C3E88F6F82F310880122CB6809787C
:1013700003F501538A405A60F0BD00230A69C2E8B0
:101380008F3F87F310884FF0FF30F0BD0346408950
:10139000B0EB214F37DD58690A1402EB420210B559
:1013A00000EBC2001C69EFF3108C72B6D4E8CFEFEB
:1013B0000122BEF1000FF9D1C4E84E2FBEF1000F9B
:1013C000F4D1BFF35F8F428889B292B28A4207D0CC
:1013D00000221B69C3E88F2F8CF31088002010BDFA
:1013E00042F4004242800121002218699971C0E84C
:1013F0008F2F8CF310881C78DA68084602F50153A9
:10140000A140596010BD0020704700BF4078704770
:101410002DE9F04306460D4683B0EFF30584E4B2B0
:101420003CB1274B586AA8421CD2002003B0BDE84B
:10143000F083244FD7F80C9097F80080484600F0CE
:1014400057F808F1040859F828301B1A301A65EBD0
:101450000101984271F1000111DB20BF184B586A5D
:10146000A842E2D39B6AB34203D3012003B0BDE894
:10147000F083401B18BF012003B0BDE8F08300F0EB
:101480003FF8864265EB01010029CADB0E4B384666
:10149000CDE9003432462B46FFF714FF011EC0DDB4
:1014A000074B5A6AAA4208D39B6AB34203D3054842
:1014B000FFF76CFFB5E7AA42F9D120BFF7E700BFFD
:1014C00000000B406C110020B50D001010B4054B4E
:1014D000054C064AA04214BF1846581C5DF8044B40
:1014E000FFF778B83023002000800B40FCA40010E8
:1014F0000346416A0A46986A596A8A42FAD1704795
:10150000034B596A0A46986A596A9142FAD1704760
:1015100000000B4010B4174A536A9C46946A536A01
:101520006345FAD1001959414FF0000228BF01224A
:101530000346CAB10F4B596A4B1C08BF0B4608D073
:101540004FF0FF310B460B48426A8A42FCD38A4275
:1015500007D1084A02E0506A884202D1906A984254
:10156000F9D35DF8044B7047024A526A9142EAD8B7
:10157000EDE700BF00000B40F8B5054606200E461B
:1015800000F0E4F8002842D0354A3648954214BFAE
:101590004FF080624FF00062334B344902601A60B2
:1015A0008C6832EA0404FBD12D4B4FF48071EB1AA6
:1015B000B3FA83F32E4A5B09062022F8131000F0D9
:1015C000C5F8C300B3FBF6F30133DA0920D1402696
:1015D00001216962AA622F6BFB0722D42B460022ED
:1015E00053F82C1F062003F5805422602F6300F06F
:1015F000ADF840F2013103228000B0FBF6F0EB6A57
:1016000083F0700303F07E0323602963AA64F8BDAE
:101610004FF6FE718A421BD922464FF6FF71154ED6
:10162000D7E740F2013205F540531A636B6AAC6AA2
:10163000062004EB831400F089F80F4BA402A3FBEF
:101640000023DB0A0021B4FBF3F0FFF763FFC5E7DB
:10165000C3F34503114603EB82161A46B9E700BFF0
:10166000008007400020024000300240000002409D
:1016700008280020C0FF3F00757B2B8F00EB400C3B
:101680004FEA8C0C0CF1804C0CF5803CF0B5164602
:10169000DCF80420051FB2F5803F38BF4FF48032DC
:1016A000EDB238BFCCF80420012D2AD94FF40067E1
:1016B000254C0CF54052176054F82020B2B9DCF8E4
:1016C0000020012D82EA461202F0E0020CF580565D
:1016D00032602AD94FF4006144F820304FF480334F
:1016E0000CF500521160CCF80430F0BD6769B7FB0F
:1016F000F2FE0EF1010E0EEB4E0EBEF1030EFCD209
:10170000DDE70129D2D103240CF540521460DCF846
:101710000820D207FBD5DCF800200B4C82EA4612E9
:1017200002F0E0020CF5805632600122DCF8005035
:101730004D4005F00305356002FA01F1DCF80820A0
:101740000A42FBD0C6E700BF34230020014B53F808
:10175000200070473423002070B4039D04682D03DB
:1017600045EA03451B4B002CB3FBF1F3B2FBF3F648
:101770001FDB194A194B904214BF4FF480424FF4BB
:101780000042174C1A6003F580531A60A36832EACE
:101790000303FBD1212200F540530433016086602E
:1017A0001A600268002AFCDA0822C5601A6070BC60
:1017B0007047036803F03F038B42DAD18368C3F3B9
:1017C0000B03B342D5D1C36803F4EE23AB42D0D1AF
:1017D000EDE700BF001BB70000800540002002407D
:1017E0000000024030B44FF080441C4B1C60E0B15C
:1017F0001B4CA3F54053DC611A4C40F001004440FF
:101800001C62596298624FF080454FF0E061134BC3
:101810001548164C1D60846019604AB930BC4FF001
:101820000042A3F580531A607047114BD861EAE774
:101830004FF47A7303FB02F2B2F1807F2ABF6FF09C
:101840007F4313461A464FF080410A4C08482360F4
:10185000094B426030BC1960704700BF00B00D40BA
:10186000D3C007B02D3FF84F00A00140F3FFFF01A8
:1018700000800D409C27002000A00D40012300EBBC
:101880004000800000F1804000F58410416003605A
:10189000704700BF002370B5DB8A04460D46002266
:1018A00042E800F2520254BF1021042144F25220B7
:1018B000984786462B462246F446BDE870400A21EA
:1018C0004FF48170604700BF0023DB8A002242E8AA
:1018D00000F2520201D4102118470421184700BF1A
:1018E00008B503460846191E02DB1AB140F0300065
:1018F000FFF7D0FF40F02000FAE700BF034AD2F81C
:101900002838002BFBD0BFF35F8F704700000E40DC
:101910000021044B044ABFF35F8F43F8041B93423A
:10192000F9D170470C080E402C080E4010B44FF44B
:101930008D704FF42A64064A064B07491460D06044
:1019400019605368002BFCDA5DF8044B704700BF48
:101950000080044000A0044000B0FA00704700BFBF
:1019600008B50148FEF71EFE20A5001038B5054C4D
:10197000054DAC4204D254F8043B9847AC42FAD32C
:1019800038BD00BF20A4001060A4001010B40748A8
:10199000074C084B084A094904601A608B6832EA10
:1019A0000303FBD15DF8044B704700BF00200240E9
:1019B0007F3BEFEF00300240F6FFF30300000240F0
:1019C000044BDB6CB3F5004F03D14FF48022024B84
:1019D000DA64704700001150002011504FF0E022EF
:1019E000044BD2F8881D0B43C2F8883D10EE30043A
:1019F000704700BF030330006FF06041044B054A9D
:101A000019609368DB4333F06043FAD1704700BF3D
:101A1000003002400000024010B545F25320FFF7AD
:101A200053FFBDE8104003460420184710B545F2A7
:101A30005320FFF749FFBDE8104003460120184737
:101A4000FEF766BE10B5054B054C4FF4887218467C
:101A5000A16808F09BFBA06010BD00BF0000002043
:101A600000ED00E0002370B52B4C82B0C4F8843048
:101A7000FFF75CFF0122294BDA63636C012BFCD179
:101A80000321264A244B11639C6B012CFCD10226B6
:101A9000052521460523224A22480096FFF75CFED1
:101AA00021462B46204A21480095FFF755FE00228B
:101AB000042031461E4BFFF7E1FD21462846002257
:101AC0001C4BFFF7DBFD0022082011461A4BFFF7E5
:101AD000D5FD002209201146174BFFF7CFFD00224C
:101AE00006201146134BFFF7C9FD0022114B0720BA
:101AF0001146FFF7C3FD0420FFF728FE00240F4B1B
:101B0000A3FB0035AD0CE0B229460134FFF7B6FE69
:101B1000062CF8D102B070BD000001400030014039
:101B2000002F685900000540008C86470080054062
:101B3000001BB70080D1F008006CDC0283DE1B4381
:101B400086B003B451FC0804CDE9020151FC09043C
:101B5000CDE9040151EC0A04CDE9060103BCF047CC
:101B6000BDE800504EEC00C4BDE800504EEC01C48E
:101B7000BDE800504EEC02C400BD000000B5FFF708
:101B8000DFFF02E010FE30F4F8D441EC100443EC27
:101B9000112400EE010410EE010480EE200451EC4B
:101BA0001004704700B5FFF7CBFF02E010FE30F4E1
:101BB000F8D441EC100443EC112400EE010410EEC3
:101BC000210480EE200451EC3004704700B5FFF78B
:101BD000B7FF02E010FE30F4F8D410B541EC100469
:101BE00043EC112451EC040453EC0524A0FB024CFB
:101BF0005FF0000EE0FB03CEE1FB02CE4CEC204494
:101C00000024E1FB03E444EC30E480EE200451ECDA
:101C10005004BDE81040704700B5FFF791FF02E0A7
:101C200010FE30F4F8D441EC100443EC112451ECD4
:101C30002104A0FB01126FEA820252FB100052FB4A
:101C400012F252FB1000A0EBD07C53EC04245CFB9E
:101C500013F153EC1524A1FB022001FB030053EC0C
:101C60004424A2EB000050FB1CF24FEA111312EBCC
:101C7000017043EBE27140EA515020EA915020F0AC
:101C8000070053EC7524A0FB023C53EC752400FBC9
:101C900003CC01FB02CC53EC0424ACEB824C40EAB5
:101CA0005C70A0F1010041EC400480EE200451EC96
:101CB0007004704700B5FFF743FF02E010FE30F4F8
:101CC000F8D440EC700400EE010410EE210480EE24
:101CD000200451EC3004704700B5FFF731FF02E0FB
:101CE00010FE30F4F8D440EC600400EE010410EE75
:101CF000210480EE200451EC3004704700B5FFF75A
:101D00001FFF02E010FE30F4F8D441EC800400EE36
:101D1000010410EE010480EE400410EE130470473D
:101D200000B5FFF70DFF02E010FE30F4F8D441ECEF
:101D3000800400EE010410EE010480EE400410EE79
:101D40003304704700B5FFF7FBFE02E010FE30F4ED
:101D5000F8D441EC100443EC112400EE010410EE21
:101D60003004C0F30070704700B5FFF7E9FE02E0F1
:101D700010FE30F4F8D443EC102441EC110400EED2
:101D8000010410EE30F48CBF01200020704700BF2A
:101D900000B5FFF7D5FE02E010FE30F4F8D441ECB8
:101DA000100443EC112400EE010410EE30F42CBFBB
:101DB00001200020704700BF00B5FFF7C1FE02E020
:101DC00010FE30F4F8D441EC100443EC112400EE82
:101DD000010410EE30F48CBF01200020704700BFDA
:101DE00010B5044608F0C2F928B10346034A23445B
:101DF000934200D810BD0248FEF7D4FB0000082033
:101E00002CA5001008F0BAB99A4238BF8854704720
:101E1000704700BF2DE9F04F83B09946DDE90DAB67
:101E20000F9B884611469A07074616D1DA453AD2E3
:101E30000C460D46ABEB0A060E4422464B46414685
:101E400020200134B847B442F7D12946BAF1000F37
:101E500008D1204603B0BDE8F08F0C46BAF1000F60
:101E600010D00E4655460C9B2E449A440191721B8D
:101E70004B46013D41461AF8010D3446B847002D46
:101E8000F5D101990F9B9B07E3D5651AAB45E0D9C6
:101E900022464B46414620200135B8475D4504F1B6
:101EA0000104F5D3D5E7BAF1000FDAD10C46D0E73B
:101EB0002DE9F04F0F9FDDF824E017F0020F0A9C88
:101EC0009DF82C900E9DDDE90C8629D1002D6FD157
:101ED000B44225D2202C07F0010B00F0128104F14E
:101EE000FF3C4FF0300AF44401E0202C7AD001345A
:101EF000A6420CF801AFF8D8BBF1000F10D0AC42ED
:101F00000ED2202C74D004F1FF3C4FF0300AF44480
:101F100001E0202C29D00134AC420CF801AFF8D1FB
:101F200017F0100F3AD017F4806F28D11CBBB8F10E
:101F3000100F00F0CA80B8F1020F00F0D4803024F6
:101F40008EF800400124B9F1000F67D17E0740F1FF
:101F5000AA802B260EF804600134CDE90B57CDE999
:101F600009E4BDE8F04FFFF755BFFC0640F189805A
:101F70007C0535D42024A6426AD0AC4268D0B8F1A2
:101F8000100F00F08780B8F1020F5AD0202CE4D057
:101F9000264601344FF0300C0EF806C0202CD2D16A
:101FA000CDE90B57CDE909E4BDE8F04FFFF732BFAB
:101FB00017F0010B3ED0B9F1000F47D117F00C0F0D
:101FC00044D1B4429BD2202C89D1202D10D8FC06BC
:101FD00057D57C0555D4202E00F0B980202D10D087
:101FE0002024CCE7BBF1000F00F0A580202DBCD948
:101FF000FC0646D57C0544D4202E00F0A880202D78
:102000003FD12C461F26B8F1100F7FD0B8F1020F38
:10201000C0D14FF0620C0EF806C0B7E72D260EF8BF
:1020200004600134CDE90B57CDE909E4BDE8F04F78
:10203000FFF7F0BEB442BFF473AF202C7FF44FAF74
:10204000D6E7202C89D026460134E2E7013DB8E7E7
:10205000661ED8D1B8F1100F64D0B8F1020F7FF42A
:102060006EAF62268EF80060302644468EF801601E
:10207000B9F1000F3FF46AAFD0E7B8F1100F7FF469
:102080006CAF2024CDE90B57CDE909E4BDE8F04F52
:10209000FFF7C0BEBE060ED4202CF2D078260EF874
:1020A0000460013472E73E077FF557AF20260EF833
:1020B0000460013451E7202CE3D04FF0580C0EEBB4
:1020C000040686F800C0013460E7BE0617D5582420
:1020D0008EF8004030248EF801400224B9F1000F40
:1020E0003FF434AF9AE762248EF8004030248EF833
:1020F00001400224B9F1000F3FF428AF8EE77824A5
:10210000F2E7BBF1000F7FF462AF71E717F0200F29
:102110000CBF4FF0780C4FF0580CA61E0EF806C0FE
:10212000013C35E7BC06EAD558248EF8004030243F
:102130008EF80140DDE717F0100F3FF40EAF17F4F3
:10214000806F9AD1202E7FF418AF1F265BE73446AC
:102150001F2658E700B9704701F0B6BA10B1D1E9AF
:1021600000311847704700BF2DE9F04F9FB09DED3B
:10217000287BDDE92AA558EC177B83461E460D9186
:10218000109243463A46384641468DED087B2C9CDA
:10219000FFF7DCFD002840F0D880384641464FF07C
:1021A000FF32754BFFF70CFE002840F0CE8038461A
:1021B00041464FF0FF326FF48013FFF7D9FD00283E
:1021C00040F0C380DDE9087800223846414600230C
:1021D000FFF7CEFD002840F0C081CDE90A78DDE9A7
:1021E0000A2390461F4614F4806308BF4FF0060A86
:1021F000139304F4006258EA0703119240F0C08080
:10220000002A00F0A2819FED5A7B00278DED0E7B06
:102210004FF00009BA45CCBFAAEB070A4FF0000AFD
:102220004F46C8BF0AF1FF3A44F480644D4594BF5D
:102230004FF00008A5EB090814F00203119304D035
:10224000B9F1000F18BF4FF000083FB1DDE90A01F6
:10225000DDE90E23FFF7E4FCCDE90A01DDE9080121
:1022600000220023FFF784FD30B1DDE90A010246B8
:1022700001F10043CDE90A239DED0A7BCDE902A8D7
:10228000DDF834A024F4006304938DED007B334625
:1022900051465846109A00F097F98046B9F1000F60
:1022A0004FD014F0200F024600F1010433460CBF5A
:1022B000652045205146D84709F1FF3087EAE77C81
:1022C0000DF1580900224B46DFF8B080ACEBE77CFB
:1022D0004FEAD77E01E0202A10D0E246A8FB0C711D
:1022E000C90801EB8107ACEB47073037BAF1090F9A
:1022F0008C4602F1010203F8017BECD8052305901E
:10230000069300200A230D9FCDE90330CDE9012E6D
:102310003346224639465846CDF80090FFF7C8FDAF
:10232000119B80466BB1109BC41AA54209D9424645
:102330003346394620200134D847A54208F1010828
:10234000F5D840461FB0BDE8F08F9DED087B3346C1
:102350005846109A0D998DED287BCDE92B54CDF878
:10236000A8A01FB0BDE8F04F00F02EB9AFF3008079
:102370000000000000000000FFFFEF7FCDCCCCCCC0
:10238000C7F30A50A0F2FF30FFF798FC8AA3D3E905
:102390000023FFF71FFC8AA3D3E90023FFF7F2FB1A
:1023A000C7F31307CDE90E0147F07F5140460022E5
:1023B0007B4B41F44011FFF7F9FB6BA3D3E90023FA
:1023C000FFF708FC02460B46DDE90E01FFF7DAFBDA
:1023D000FFF798FC0746FFF771FC65A3D3E90023DC
:1023E00080468946FFF7F6FB00226E4BFFF7CAFBDB
:1023F000FFF788FC03464946404612935EA3D3E9A3
:102400000023FFF7E7FB804612988946FFF756FC4A
:102410005BA3D3E90023FFF7DDFB02460B464046F2
:102420004946FFF7C3FB02460B4680468946FFF745
:10243000D1FB42464B46CDE90E0140464946FFF7E7
:10244000A1FB0022CDE91401DDE90E01564BFFF797
:10245000E7FB0022554BFFF795FB02460B46DDE9F3
:102460000E01FFF7DDFB0022514BFFF78BFB02460D
:102470000B46DDE90E01FFF7D3FB42464B46804693
:10248000894600204FF08041FFF790FB02460B4643
:1024900040464946FFF776FB02460B46DDE914014C
:1024A000FFF7BEFB0022434BFFF76CFB129B0022A1
:1024B00003F2FF3C4FEA0C53FFF78CFB8046894642
:1024C000DDE90A0142464B46CDE90E89FFF750FC93
:1024D00068BB4346494607F16302C62A119A8CBF7E
:1024E0004FF005094FF00409002A3FF49FAE0B435B
:1024F0003FF48EAEDDE90A0123A3D3E90023FFF701
:102500004BFC48B1DDE90A0121A3D3E90023FFF721
:102510002FFC00287FF47CAEBAF1000F3FF486AEAA
:10252000139B002B3FF482AE0AF1FF3A7EE60022B5
:102530001E4B40464946FFF773FB0A4601460346D9
:10254000CDE90E12013F1146C5E79FED137B1746FB
:102550004FF004098DED0E7B68E608F100430A9701
:102560000B933CE6AFF3008061436F63A787D23FD4
:1025700071A379094F930A401655B5BBB16B024060
:10258000EF39FAFE422EE63F2D431CEBE2361A3FAE
:102590000000000080842E410000000000000000C8
:1025A0000000F83F0000E03F00002C400000244005
:1025B000000018400000F03FFB799F501344D33FC8
:1025C000B3C8608B288AC63F2DE9F04F97B0DDE98C
:1025D0002089CDE90401DDE9224BCDE906234046FF
:1025E00042464B464946DDF890A0FFF7AFFB002876
:1025F00040F0C581404649464FF0FF326FF48013EA
:10260000FFF7B6FB002840F01D81404649464FF0D9
:10261000FF32C14BFFF7D4FB002840F0E380B8A3A2
:10262000D3E9002340464946FFF7CAFB002840F0A3
:10263000CB80B5A3D3E9002340464946FFF798FB7A
:10264000002840F0C1804046494600220023FFF7A1
:102650008FFB002840F0E0801AF480650D9000F0B8
:10266000E980092C40F296810EAB1A460C9330217A
:102670000023A4F109050133202B02F8011BA4EB70
:10268000030600F03A81AB42F5D19FED9D7B8DEDC5
:10269000087B49464046FFF735FB0446FFF70EFB33
:1026A00002460B4640464946FFF780FADDE908231B
:1026B000FFF790FA02460B46CDE90A23FFF734FBF9
:1026C0000746FFF70DFB02460B46DDE90A01FFF75F
:1026D0006DFA02460B46CDE90A2300228F4BFFF725
:1026E0006FFB002800F0DB8001373846FFF7F8FA6F
:1026F000DDE90823FFF750FB08B100270134002E65
:1027000040F0B1802046FFF7D9FA02460B4640461A
:102710004946FFF74BFA0022804B06460F46FFF76B
:1027200027FB40B93046394600227C4BFFF748FB77
:10273000002800F015810C9B691E7948194410E0AF
:1027400080FB0462C3EBA20303EB8302A4EB42040D
:1027500004F1300201351C4601F8012F002B00F076
:10276000AB80202D4FEAE473EAD10AF00303012B7A
:102770001CD1BBF1000F19D00D9B002B40F0F9804C
:102780001AF00C0F40F0F580AB4540F2D380202DBD
:102790000BD030220C996B1E0B4401355D4503F8BC
:1027A000012F00F08D80202DF7D12025DDE90623B3
:1027B000DDE904010C9CCDE902BA01950094FFF714
:1027C00029FB17B0BDE8F08FCDE92089DDE90623AC
:1027D000DDE90401CDE923BA229417B0BDE8F04F3A
:1027E000FFF7C2BC4F4DCDF88CA00AF0040ABAF135
:1027F000000F4D4C18BF2C46DDE90623DDE904012E
:1028000020940CBF03240424CDF888B0219417B081
:10281000BDE8F04FFFF7FEBA4B46424600200021CC
:10282000FFF7C4F901231AF48065804689460D93A9
:102830007FF417AF9FED367B0EAB06268DED087B40
:102840000C9326E70424DDE90623DDE90401374D76
:10285000CDF88CA0CDF888B02095219417B0BDE8B4
:10286000F04FFFF7D7BA0C9B681EDFF8C4C01844BE
:102870000DE0ACFB0721C90801EB8102A7EB420286
:102880003032092F00F8012F27D90F461D46202D81
:1028900005F1010306F1FF36EBD120254BE70022BD
:1028A000DDE90A011D4BFFF763FA00287FF427AF2B
:1028B000002F5AD1013722E70AF00303012B75D00C
:1028C000202D3FF473AF0D9BBBB32D2205F15803B0
:1028D0006B4403F8202C013568E7202BDDD0AEB324
:1028E0000C9A1E441544302201E0B3422ED001332D
:1028F000202B05F8012FF8D1CFE71D46C5E600BF14
:102900000000000065CDCD410000000065CDCDC1C7
:102910000000000080842E41FFFFEF7F0000E03FB9
:102920006766666674A500107CA5001084A500107B
:10293000CDCCCCCC202D3FF439AF1AF0040F0DD103
:102940001AF0080F3FF432AF2022BFE72E2103F127
:1029500058026A4402F8201C5D1CECE62B22B5E705
:10296000E3077FF5E8AE0134E5E6FA077FF5C7AE89
:10297000A0E70BF1FF3BAB453FF609AFA0E703240F
:10298000DDE90623DDE904010A4DCDF88CA0CDF880
:1029900088B061E7084B264603EBC40393ED007B48
:1029A0000EAB8DED087B00250C9372E6BBF1000F9A
:1029B00086D0E1E680A50010F0A600102DE9F04FCA
:1029C0009A469BB0249C964D0B94964C0B1E18BFB8
:1029D000834625609AF80000934C0A9308BFA346EB
:1029E0000992002800F0BC824FF000090AE04A4634
:1029F000099B0A9909F10109D8479AF800000028B3
:102A000000F0CE8025280AF1010AF0D100235246B9
:102A100012F8010BA0F1200110290AD8DFE801F01B
:102A20004009093C09090909090909380934090952
:102A30003000A0F13001092940F28C802A2800F0F2
:102A4000F58000210C912E2800F099800027A0F13C
:102A5000680112292DD8DFE811F057012C0051012F
:102A60002C0045012C002C002C002C002C002C00EC
:102A70002C0027002C002C002C002C002C00270000
:102A8000924643F00103C2E7924643F00203BEE7D9
:102A9000924643F00403BAE7924643F01003B6E7C8
:102AA000924643F00803B2E79AF8010043F48073BA
:102AB00001326728924600F28280242840F2C680C4
:102AC000A0F12502422A00F2C180DFE812F05F0186
:102AD000BF00BF00BF00BF00BF00BF00BF00BF00FE
:102AE000BF00BF00BF00BF00BF00BF00BF00BF00EE
:102AF000BF00BF00BF00BF00BF00BF00BF00BF00DE
:102B0000BF00BF00BF00BF00BF00BF00BF00260165
:102B100045012601BF00BF00BF00BF00BF00BF00CE
:102B2000BF00BF00BF00BF00BF00BF00BF00BF00AD
:102B3000BF00BF00D301BF00BF00BF00BF00BF0088
:102B4000BF00BF00BF00BF00D3016701D301260152
:102B500045012601002100E0013201EB810100EB7B
:102B6000410110789246A0F13004092CA1F1300106
:102B7000F2D92E280C9102F101027FF467AF9AF886
:102B800001001146A0F13006092E43F4806340F2A3
:102B900031812A2800F03E8192460027013256E713
:102BA0004C46099B994501D303F1FF394A46002061
:102BB000099B0A99D84720461BB0BDE8F08FA0F1C9
:102BC0006902D2B20F2A41D8012649F2410196404A
:102BD0000E4040F001810A2A3FD0072A36D10B9CD3
:102BE00054F8042B002A00F0288143F021010DF154
:102BF000480E704603E0202E00F029811A4602F0AC
:102C00000F052B46092D94BF303337330F2A00F8B8
:102C1000013B06F101064FEA1213ECD817E100BFA1
:102C2000BD29001098270020111E00100B9C9AF857
:102C3000010054F8045B9246002DBDBF694243F089
:102C400002030C910C950B940132FCE64A46099B59
:102C50000A9909F10109D847CFE60B9951F8048B7D
:102C600098F800201046002F40F0E18072B16FF01C
:102C7000010C0CF1010C4646C44401E0664503D04A
:102C800016F8014F002CF9D1A6EB080613F4806C5E
:102C900002D0BE4228BF3E4613F0020400F08781F6
:102CA000002A00F02B81BCF1000F00F041810B9451
:102CB0000D964A46DDE909540E464F4408E02B467E
:102CC0002146D84718F8010F09F1010910B14A4609
:102CD0004F45F4D131460B9C0D9E002C40F00E81E7
:102CE0000B918AE69AF801006C287FF4DFAE9AF81F
:102CF000020043F440730AF10302DAE69AF8010095
:102D000043F400730132D4E69AF80100682800F019
:102D1000208143F080030132CBE6672800F0E78092
:102D2000472800F00081452800F0FF800B9C0493A9
:102D30000C9B0734CDE9027324F007031C46DDE940
:102D40000931F4E802674A465846CDE900670B941A
:102D5000FFF70AFA814650E646280B9C08BF43F06D
:102D6000200304930C9B0734CDE9027324F007037E
:102D70001C46DDE90931F4E802674A465846CDE9C8
:102D800000670B94FFF720FC814636E64A46252073
:102D9000099B0A9909F10109D8472EE60B9A9C076D
:102DA00002F1040709F1010640F1E6801078099B61
:102DB0004A460A99D8470C9B012B40F22C81DDE949
:102DC0000954994432462B46214620200136D847E3
:102DD0004E45F7D10B9710E66F2800F08B8040F23C
:102DE0006581782800F008814FF00A0823F010036D
:102DF000C44647E0002707EB870700EB4700A0F138
:102E0000300711F8010FA0F13002092AF3D98A46E0
:102E10004A1C1CE60B9C9AF8020054F8047B0AF149
:102E2000020A0AF101020B9427EAE7770FE6002A6B
:102E30003FF42CAF07F1FF3C1BE723F0100113F424
:102E4000806241F021013FF4D2AE0DF1480E08231B
:102E50001020059300234A46CDE9023006915846DA
:102E6000DDE90931CDE900E60497FFF721F80B947D
:102E70008146C2E5582879D0622840F051824FF04F
:102E80000208C44613F480606DD123F00C0313F4E0
:102E9000007240F0C2800B9904310D9113F48071DF
:102EA00040F02E825E060B9A40F1AA801278002A2A
:102EB00040F0DA8023F01003002800F0D58011469E
:102EC0000DF1480E06930C9BCDF80CC0CDE90473B0
:102ED000019100234A4602935846DDE90931CDF8B5
:102EE00000E0FEF7E5FF0D9B81460B9385E543F47B
:102EF00000631BE74FF00808C446C3E70C9B4C4631
:102F0000B3427FF6EDAE0F464B44A3EB0609DDE975
:102F1000096522463346294620200134D8474C45CE
:102F2000F7D13946DCE643F4006343F02003FDE6C5
:102F30000F460B94DDE909544A462B462146D847F3
:102F400018F8010F09F101090028F5D139460B9C49
:102F5000C3E69AF8020043F0C0030AF10302A8E5B1
:102F6000044681461DE623F00D0390E74FF010085C
:102F700043F02003C44685E70C9B012B45D9DDE9CE
:102F800009544E4609F1FF38984432462B462146F3
:102F900020200136D8474645F7D10C9B324699444C
:102FA0000B9B1878DDE90931D8470B9725E50C9B79
:102FB000B34240F2EE81CDE90D48DDE9095488467F
:102FC0004B449E1BCDF82CC04A462B462146202060
:102FD00009F10109D847B145F6D14146DDF83880FD
:102FE0000C9BDDF82CC00D9C98F800205E1C104650
:102FF000002A7FF458AE73E64FF01008C44641E74C
:103000001D064CBF1288126851E713464A461878CD
:10301000DDE90931D847B146DCE60B9C073424F0E2
:1030200007042246656852F8084B0B9254EA0502E1
:1030300040F02C8123F01003002800F027810026A7
:103040000DF1480E06930C9B4A46CDE9047300230C
:10305000CDE900E6CDF80CC002935846DDE9093110
:10306000FEF726FF8146C8E413F0200F14BF41206D
:1030700061200DF1480E7646A0F10A0803E02029F0
:103080003FF420AF2246B2FBFCF40CFB1425E8B25F
:10309000092D00F130058ABF4044E8B2C0B2624554
:1030A00006F8010B01F10101E9D20BE723F0100250
:1030B00069280D9240F06F8113F4806204D04FF4C0
:1030C000806223F011030D930D9B13F4007640D121
:1030D0000B9B03F104080D9B13F4807040F0988063
:1030E000590640F1C6800B9B19780C46CB0F00297E
:1030F00000F0B98022460DF1480E74461646DFF8FE
:10310000A0C201E020280FD03546ACFB0621C9083B
:1031100001EB8102A6EB42023032092D0E4600F18E
:10312000010004F8012BEDD80D9ACDE901030692B8
:103130000C9ACDE904720A234A4603935846DDE906
:103140000931CDF800E0FEF7B3FECDF82C808146C2
:1031500053E40B9C073424F00704214608466368B7
:1031600050F8081BDC0F0B9051EA030000F0C380FD
:103170000A46191E48DB13460DF1480EF446002698
:10318000CDE90E94DFF8188201E0202E2DD05A18D8
:1031900042F10002A8FB025929F0030505EB99054D
:1031A000521B1C469B1A61F1000508464FF0CC31BA
:1031B00001FB03F108FB0511A3FB08531944052388
:1031C00005F00109A9FB03399B180A2C03F1300310
:1031D0004FEA550570F100000CF8013B06F10106BD
:1031E00045EAC1734FEA5101CFD2DDE90E940D9B40
:1031F0004A4606930C9BCDE90164CDE904730A238A
:10320000CDF800E0039328E7524261EB4101B2E7B9
:103210000B9B1968CB0F002900F0AB8081EAE172AB
:10322000A2EBE1720DF1480E7046DFF874C101E0C7
:10323000202E10D01546ACFB0241C90801EB8104D9
:10324000A2EB440404F13002092D00F8012B06F131
:1032500001060A46ECD80D9ACDE9016306920C9A54
:10326000CDE9047267E7002A3FF445AF0DF1480E3F
:103270005AE713F0800F0B9B00F08180B3F9001028
:1032800081EAE174A4EBE174A4B22FE713F0200FFC
:1032900014BF412261220DF1480E0A3ACDE90D9783
:1032A000CDF844B000267746F3469146CDE90F3C71
:1032B00003E0202E17D004460D462946424600233F
:1032C000204607F095F8D2B2092A02F1300388BFF0
:1032D00002EB09034445DBB275F1000507F8013B39
:1032E00006F10106E5D2DE46DDE90D97DDE90F3C8A
:1032F000DDF844B0A6E6002A47D1134611463BE765
:103300000B990968A1B923F0100388B10DF1480E9B
:1033100006930C9BCDF80CC0CDE904730192D8E55F
:1033200013F480627FF4CBAE23F010030D93CBE651
:1033300013F0200F14BF412061200DF1480E764696
:10334000A0F10A0802E0202AE2D02146B1FBFCF4F9
:103350000CFB1415E8B2092D00F130058ABF40447A
:10336000E8B2C0B2614506F8010B02F10102EAD2EF
:10337000CEE7002A3FF456AF0DF1480E6BE719680F
:1033800081EAE174A4EBE174B0E600260DF1480E89
:103390002DE701362BE64FF00A081346C44671E5C7
:1033A000CDCCCCCC0EB410B585B007AC54F8043BF2
:1033B00001464FF0FF32009404480394FFF7FEFAF1
:1033C00005B0BDE8104003B0704700BF091E0010F3
:1033D00070B594461E4605460C4684B04FF0FF3249
:1033E000634602A900960348CDE90254FFF7E6FAC6
:1033F00004B070BD5D21001010B5094B84B01C688D
:103400004CB1034600914FF0FF3203A90548A04795
:10341000012004B010BD00F099F9204604B010BDA1
:10342000982700205521001000BEFDE7074A0346FB
:10343000106838B1064903448B428CBF4FF0FF300F
:1034400013607047034908461160F3E7902300209A
:10345000000008202C28002008B5FFF7E5FF00BF7A
:1034600038B5064C064DFEF781FAAC4204D254F84A
:10347000043B9847AC42FAD338BD00BF60A40010AB
:103480006CA400100368084611461847437D2DE9D7
:10349000F04781460F461646002B43D0002A3BDDFD
:1034A000037D00204D1E014615F8012FDFF88480B2
:1034B0000A2A01F101040ED0A6421CD02B78214625
:1034C000A3F10D03B3FA83F315F8012F5B090A2A60
:1034D00001F10104F0D1002BEED18142A1EB0001FA
:1034E00038441BDC02214046D9F800309847A642F8
:1034F00008D02046E2E7864204DD311AD9F80030D0
:1035000038449847374417F8013CA3F10D03B3FA48
:1035100083F35B0989F81430BDE8F087D9F80030EF
:103520009847DFE73846D9F800301146BDE8F04744
:10353000184700BF40A700100B682DE9F041802B11
:103540000D46064605D05A1C2B442A601E71BDE864
:10355000F0810F4B1C68A4B10E4F01F1040801E08B
:10356000246974B12368002BFAD03B680BB1A342E5
:10357000F6D1204641462A68FFF788FF2469002CCF
:10358000F0D1002301222B442A601E71BDE8F08196
:10359000842300208C2300202DE9F04782B00D46C3
:1035A000924699460746FDF7ABFF4FF0FF366FF0A6
:1035B00000442F4A821841F10003964274EB030144
:1035C0003CBF324623462B4806F01EFF6B1C80464C
:1035D00003D1384606F068FE0546274B274E1C6887
:1035E000274BB9F1000F18BF1E46B4B1BAF1000F56
:1035F0001AD1DFF8909001E0246974B12368002BA0
:10360000FAD0D9F800300BB19C42F5D120462A46B9
:103610003946B0472469002CF0D1B8F1000F1FD112
:10362000284602B0BDE8F0874FF00A0ADFF8549050
:1036300002E02469002CF0D02368002BF9D0D9F8DF
:1036400000300BB1A342F4D12A4639462046B04798
:10365000012220460DF107018DF807A0B047E8E7E9
:10366000044806F0C9FE284602B0BDE8F08700BF56
:1036700040420F00181700208423002085340010DA
:103680008D3400108C2300200A4A13684BB183420A
:1036900002D109E0984207D003F110021B69002B08
:1036A000F8D101B1106070470029FCD103691360A3
:1036B000016170478423002008B500F0A7F900F0ED
:1036C000DDFB012008BD00BFF0B583B006468DF8D4
:1036D0000700FDF715FF4FF0FF356FF00044174A64
:1036E000821841F10003954274EB03013CBF23466D
:1036F0002A46134806F088FE124B07461C689CB108
:10370000114D01E024697CB12368002BFAD02B68AD
:103710000BB19C42F6D1204601220DF10701FFF7C3
:10372000B5FE2469002CEFD117B9304603B0F0BDC7
:10373000034806F061FE304603B0F0BD40420F0082
:1037400018170020842300208C23002038B504465D
:1037500006F0AAFD012305461A4620462946FFF732
:103760001BFF084B1C682CB163682BB19847246978
:10377000002CF9D1284638BD2469002CF4D1284604
:1037800038BD00BF842300202DE9F041A2B00446DB
:103790000D46FDF7B5FE4FF0FF376FF00046274AA4
:1037A000821841F10003974276EB03013CBF3A4691
:1037B0003346234806F028FE00262B4607462246BD
:1037C000204801A90196FFF703FE019B06467BB93D
:1037D0001D4B1C682CB1636843B198472469002CC9
:1037E000F9D10FBB304622B0BDE8F0812469F1E782
:1037F000DFF85480D8F80050EDB1144C01E02D6989
:1038000075B12B68002BFAD023680BB1AB42F6D10F
:103810002846019A02A9FFF739FE2D69002DF0D143
:10382000D8F800400195D5E7054806F0E5FD30469B
:1038300022B0BDE8F0810195D3E700BF40420F0000
:103840001817002039350010842300208C23002015
:103850000FB400B583B004A951F8040B0191FFF730
:1038600093FF03B05DF804EB04B07047B1F1000CB6
:103870001DDD0F4A0F4B126830B5D31AB3FA83F32C
:103880000D240D4D5B09411E35F913E08C4411F8F0
:10389000010F864506D093699B06FCD461451060F4
:1038A000F5D130BD93699D06FCD41460F3E77047F1
:1038B0000C2800200080074008280020224BB1F18E
:1038C000000C10B41C682EDD034600201F4A591E50
:1038D00012689369DB0617D401309369DB06FCD4C8
:1038E0001368844501F8013FF3D14CB150211346D0
:1038F000916353F8342F02F0380203F580531A60B5
:1039000060465DF8044B70474CB1502113469163FB
:1039100053F8342F02F0380203F580531A6078B15F
:103920005DF8044B70475CB1084B50211A68134690
:10393000916353F8342F02F0380203F580531A6074
:103940006FF00200ECE700BF1C2300200C280020D1
:10395000054B1B6833B10021044A05481268006812
:1039600091631847704700BF1C2300200C280020DB
:1039700024230020024B1A6893691B07FCD470476C
:103980000C280020F8B51C4F1C4D3A681C4EAA426A
:1039900014BF212522250446D6F800C018B1BCF179
:1039A000000F10D0F8BDBCF1000FFBD001469063B2
:1039B0002846FCF7D9FE28461249FDF73BF8124B82
:1039C00034601C60F8BD0B460F4A0E493060284633
:1039D0001360FCF70BFF01212846FCF7C5FE3A688F
:1039E00050211346916353F8342F02F0380203F547
:1039F00080531A60F8BD00BF0C28002000800740EB
:103A00001C230020513900102423002010B50E493A
:103A10000E4C0F480F4A104B007821600020022105
:103A200012781B78FCF758FD02210120FCF754FDA9
:103A30004FF4E1312068FDF79FFDBDE81040012102
:103A40000648FFF721BE00BF000007400C280020F9
:103A500050A900104CA9001048A9001084110020A2
:103A6000704700BF0022014B1A70704726280020C3
:103A70004B79FF2B0BD1887948B9CB79012B07D132
:103A8000082A05D9034B8A7809201A70704700204C
:103A9000704700BF2628002001207047012901D06F
:103AA0000120704708B5104B91881B78994201D0CE
:103AB000002008BD5378012B08D0022BF8D100213B
:103AC00064220846FDF78EFE012008BD5188CB0513
:103AD0004BBF4A0A4A0A10464FF0FF3002F001027B
:103AE00001F07F01FDF7FCFE26280020004870470A
:103AF00028A80010012907D15378012B02D19388FF
:103B0000072B03D000207047012070471146A623E1
:103B1000014A01F03FBA00BF80A70010034601220E
:103B200001481A70704700BF60A7001008B50B6805
:103B3000B3F5966F00D008BD00224FF0FF3011465C
:103B4000FDF7CEFE024A034B10601960704700BFBC
:103B50002023002028230020184B70B51A68002A63
:103B600028D0EFF3108172B6D2E8CF4F0120002C9D
:103B7000FAD1C2E8440F002CF6D1BFF35F8F0022C8
:103B80000F4C186859602270C0E88F2F81F310889D
:103B9000002400250B4E3078FCF7FCFD20B90024F2
:103BA00000252046294670BD3078FCF703FE2046EC
:103BB000294670BD4FF47A740025EBE7A427002056
:103BC0002828002027280020014B1878FCF7F2BD98
:103BD0002728002038B5044600200D4601F006FBDA
:103BE000A8B3002001F018FB88B3FDF789FC4FF063
:103BF000FF3E6FF0004C174A821841F100039645D2
:103C00007CEB03013CBF72466346134806F0FCFBA5
:103C1000E8B1002001F0EAFA58B900214FF0FF3076
:103C200000F012FD6FF002040B4806F0E5FB2046A1
:103C300038BD002001F0F0FA0028EED021462A46D7
:103C4000002001F0F5FA04460028EDD1EAE76FF014
:103C50000204ECE740420F000028002008B5FDF701
:103C60004FFC4FF0FF3E6FF0004C0F4A821841F1BD
:103C7000000396457CEB03013CBF724663460B484C
:103C800006F0C2FB70B14FF0FF30002100F0DCFC09
:103C9000002001F013FB0028F5D1BDE808400348DF
:103CA00006F0AABB08BD00BF40420F00002800205C
:103CB0002DE9F84307460E46FDF722FC4FF0FF358D
:103CC0006FF00044334A821841F10003954274EBCF
:103CD00003013CBF2A4623462F4806F095FB08B94E
:103CE000BDE8F883002001F081FA002848D0002EBA
:103CF00041DD0025DFF8A480DFF8A49013E0224620
:103D0000002001F021FB002104464FF0FF3000F0BD
:103D10009BFC002001F0D2FAFDF7F2FBC8E900019C
:103D20002544AE4227DD002001F030FB741B8442A5
:103D3000A8BF04467919002CE1D121464FF0FF308D
:103D400000F082FC204601F0B9FA204601F04EFA5C
:103D500088B1204601F01AFB0028E2D1FDF7D0FB24
:103D6000D8F80030D8F8042013EB090342F1000220
:103D700083428A41D5D20848BDE8F84306F03CBBEF
:103D800000200021054BC3E90001BDE8F8430248CB
:103D900006F032BB40420F0000280020B819002076
:103DA00020A1070030B5002185B02E4806F030FB79
:103DB000F0B92D4B1A68CAB1EFF3108172B6D2E890
:103DC000CF5F0124002DFAD1C2E8454F002DF6D176
:103DD000BFF35F8F254C1D6822785960D3B2012252
:103DE0002270C5E88F0F81F31088CBB105B030BDCC
:103DF00000214FF0FF3000F027FC002001F00CFA0A
:103E00000446184806F0F8FA002CEFD0184B1B684F
:103E1000002BEBD0174A106805B0BDE830401847BA
:103E2000FDF7DEF90446FDF76BFB4FF0FF3C6FF04A
:103E3000004510F57A7241F10003944575EB0301DA
:103E400038BF2B464FF000014FF0010520460A4CC9
:103E500038BF6246CDE901150094FDF7C5F905B0FC
:103E600030BD00BF00280020A42700202828002003
:103E70002023002028230020593B00104FF05043FE
:103E800030B585B01C68FDF7ABF9FDF7BFFAA0426D
:103E900002D0002005B030BD00212A4B08461B7817
:103EA00001F04AFD28480368002B47D00120FCF7A9
:103EB0001DFF0346254C2649C0B22370FCF796FC33
:103EC00020780121FCF750FC0E20FCF77FFC40BB62
:103ED000204B0125C3E90000FDF782F90446FDF7F8
:103EE0000FFB4FF0FF3E6FF0004C10F57A7241F17E
:103EF000000396457CEB03014FF000012046164C71
:103F00003CBF72466346CDE901150094FDF76CF99C
:103F10000028BEDB01211148FFF7B6FB012005B0E8
:103F200030BD0120FCF7DCFB01460A48FCF73AFFF4
:103F300000220E200A49FCF789FCEBE7FCF716FF8C
:103F4000B4E700BF54A90010002800202728002053
:103F5000A53D0010A4270020593B00109C11002013
:103F6000C93B001000487047C4A8001000487047C3
:103F700070A8001038B5184B04461A780AB344B933
:103F800040F209424FF44173144D6A8013482B806C
:103F900038BD052C1AD8124B104D53F82410284662
:103FA0000023013903E0132B20F8022F10D011F861
:103FB000012F0133DBB2002AF5D15B0043F44073DB
:103FC000E4E71121184600F025F8D8E7002038BDB5
:103FD0004FF44A73DAE700BF102800205C2300206A
:103FE00058A8001000B545F247308BB0FDF76CFCC7
:103FF00001220346092101A89847DDE9033204495B
:1040000012BA1BBAC1E900230BB05DF804FB00BF74
:10401000F4270020012901F1FF3300F0B3805D494E
:104020000A784FEA121C9F2A8CBF0CF1370C0CF156
:10403000300C012B80F800C000F0A78002F00F02C6
:10404000092A8CBF37323032022B427000F09D803B
:104050004A784FEA121C9F2A8CBF0CF1370C0CF1E6
:10406000300C032B80F802C000F08F8002F00F02AA
:10407000092A8CBF37323032042BC27000F08580A1
:104080008A784FEA121C9F2A8CBF0CF1370C0CF176
:10409000300C052B80F804C077D002F00F02092AFB
:1040A0008CBF37323032062B42716ED0CA784FEA5D
:1040B000121C9F2A8CBF0CF1370C0CF1300C072B13
:1040C00080F806C061D002F00F02092A8CBF373297
:1040D0003032082BC27158D00A794FEA121C9F2A3D
:1040E0008CBF0CF1370C0CF1300C092B80F808C098
:1040F0004BD002F00F02092A8CBF373230320A2B24
:10410000427242D04A794FEA121C9F2A8CBF0CF1AE
:10411000370C0CF1300C0B2B80F80AC035D002F0B4
:104120000F02092A8CBF373230320C2BC2722CD0CE
:104130008A794FEA121C9F2A8CBF0CF1370C0CF1C4
:10414000300C0D2B80F80CC01FD002F00F02092A92
:104150008CBF373230320E2B427316D0CA79110918
:104160009F2A8CBF373130310F2B81730DD002F075
:104170000F02092A94BF30323732102BC27318BF96
:10418000103002D0002303707047184400230370DE
:10419000704700BFF427002070B500F033F90C23FE
:1041A00040261B4CFF22A3670E201A49FCF74EFB4A
:1041B000194B32460021184605F060FB03460021EA
:1041C00001258020154A58849A60843A5D701E83C8
:1041D0001E875960C2F88410C2F8801002F5807200
:1041E000DA60DA62803A83F8211083F83B10596272
:1041F0009A624FF0005606F00FF94FF480320849EA
:10420000084B25642846E664C4F89010DA6470BD53
:1042100000001150A90300209423002084001050B6
:1042200010D001000020115001210E20FCF79CBA93
:1042300000220248114600F005B900BFB423002057
:10424000044B197021B14FF40032034BC3F8902096
:10425000704700BF23280020002011500B785B0618
:1042600002D14B78052B00D070474B88014ADBB256
:104270001360704700001150CB782DE9F04103F036
:10428000030EBEF1010FC3F301005DD0002791F8CA
:1042900002C0354C0CF07F035E00898806EBDC120F
:1042A00004EB42124FEADC15D076C1F30A0185F027
:1042B0000100507082F802C01183D77018B2DA0082
:1042C0008DBB2A48043204EB831C02EB0008CCF8B7
:1042D000088017508BB3264ADB001A44CCF8042020
:1042E000244B3F311A6821F03F01BEF1020F08BF95
:1042F000490011441960204B771904EB4717994284
:10430000FA602CD82E4404EB4613D97E82F0A042EA
:1043100082F480125B6842EA816242F000421A60D5
:104320000120BDE8F081DFF844C004EB831862444B
:10433000C8F828204CF830704BB900220F4904EB24
:104340004513D9605A60EBE70020BDE8F081DB003F
:1043500003F1A04303F58013C8F82430C0E7FDF74C
:10436000FFFAFA68CEE700BF9423002080001050C7
:1043700004001050A0270020FF0F10500001105023
:1043800006F04AB88C4608B5114607481A460CF0A4
:104390007F034FEADC1C0CEB430C00EB4C1000F0ED
:1043A00051F8012008BD00BF94230020CB0911F073
:1043B0007F0103D1064AC3F102009066054803EB72
:1043C00041034FF40062002100EB431006F018B8DF
:1043D000002011509423002011F07F0300D170477A
:1043E000002210B4C809064C00EB430004EB401354
:1043F0006FF4006118465DF8044BDA7006F000B8FF
:10440000942300204FF0805209480A4908B50A4B0E
:1044100002600A609968C94311F08051FAD14FF4E3
:104420008052064805F02AFA0922054B5A6708BD52
:104430000020024000300240000002400000105006
:104440000000115000234FF0010C10B580F81AC085
:104450008282C3820161044605F0C6FF20B14FF499
:104460000032074BC3F89020204605F0B1FF10B191
:104470000123237710BD2046BDE8104005F0B0BFF2
:10448000002011502DE9F04100241D4E0546234621
:104490003278DFF878801B4F0DE03B6813EB441354
:1044A00025D0DB682846984732780134E4B2511CA5
:1044B000A142234606DBA242A3EB0203EDD808EBA0
:1044C0004313EEE7104C54220021204605F0D6F9A4
:1044D0004FF0FF33251D6360C5E90133EB6004F144
:1044E00014002022BDE8F041FF2105F0C7B94FF0CC
:1044F000E023D3F8F03DDB0700D500BEBDE8F08136
:1045000022280020301E0020341F0020D8A80010D0
:10451000704700BF704700BF002070470020704701
:10452000704700BF704700BF704700BF704700BFB3
:10453000024B5878003818BF01207047341F002004
:10454000024B1878C0F38000704700BF341F002072
:104550002DE9F047DFF8E8A09AF80030FF2B02D0F1
:104560000120BDE8F0870E4600293ED000215422EC
:104570000746294805F082F90022284C284B20469E
:104580001A70FCF7F3FB274B27481C60274CFCF7FD
:10459000FBFB204601F0D2FD254A264B264D146038
:1045A00063B32846FFF7BAFA244B2A781860002430
:1045B000DFF890902346DFF884800EE0D8F80030D2
:1045C00013EB441311D05B687BB198472A78013410
:1045D000E4B2511CA142234612DBA242EED89B1A40
:1045E00009EB43135B68002BEFD14FF0E023D3F8C6
:1045F000F03DDB0700D500BE0020B2E72A78D6E701
:10460000314638468AF80070FFF7C6FD0028ECD026
:104610003846FFF709FEA3E7341F00202C1F0020B7
:1046200024280020881F0020C8110020B411002079
:104630008C1F00201D3B001022280020301E00206F
:10464000D0110020D8A800102DE9F04FDFF8C89253
:104650008BB099F80030FF2B00F0F180A84CA94DE9
:10466000DFF8B0A2DFF8B4B226687369EFF3108206
:1046700072B6D3E8CF0F01210028FAD1C3E8401F5A
:104680000028F6D1BFF35F8FB261304607A901F071
:10469000A3FB00237269C2E88F3FB36983F31088DC
:1046A000002800F0CC809DF81D30013B072B00F264
:1046B0007D83DFE803F0A7B1959D8E350A04089B42
:1046C000002BD1D009989847CEE79DF8201001F033
:1046D0007F0605EB460000EBD11090F8343023F054
:1046E000010380F8343090F8343023F0040380F86C
:1046F0003430002E00F0A680037D9AF8002093420B
:1047000080F09380804A126812EB431300F090808F
:104710009E699DF82120099B9DF81C00B047A3E7E6
:104720009BF80030002B00F083809BF80030013BA9
:10473000DBB28BF800309BF8003003F0FF00002B59
:1047400092D1704F9DF81C803B7843F001033B7081
:1047500097F8343060F3000387F8343097F834303A
:1047600060F3820387F8343097F8353060F3000344
:1047700087F8353097F8353060F3820387F83530A5
:1047800000F068FC9DF8203003F06002602A6CD0D5
:10479000402A7CD003F01F03012B00F0C180022BC4
:1047A00000F08180002B60D1202A00F0E981002AEE
:1047B0005BD19DF82130092B57D8DFE813F0B00109
:1047C000A2015600C101560095016B01560060011F
:1047D000F4002B78D9077FF547AFFFF7A7FE43E733
:1047E000EB78DA077FF540AF0898FFF793FE3BE7D9
:1047F0002B78D8077FF538AF2878C0F3C000FFF7D3
:1048000093FE31E79DF81C00FFF73CFE00F018FC1A
:104810009DF82030AB7027E79DF81C00FFF732FEB3
:1048200000F00EFCFFF77EFE1EE7501C984211DAE6
:104830004FF0E023D3F8F03DDC0700D500BE0BB00D
:10484000BDE8F08F099B9DF821209DF81C0000F029
:1048500015FC09E79B1A2D4A02EB431358E7FFF7B3
:1048600085FB0246002840F082814FF0E023D3F818
:10487000F03DDE0700D500BE9DF81C000021FFF7CB
:1048800095FD80219DF81C00FFF790FDECE6204887
:1048900000F0E0FB0121404608AAFFF72BF90028B1
:1048A0007FF4E2AEE8E79DF8241011F0700FDCD140
:1048B00001F07F0607EB4600164B00EBD1101B788A
:1048C000007D7600019698424FEAD116009659D3A2
:1048D0005E1C8642C0F26681C01A0C4B03EB401688
:1048E000002A00F06381706900F0B4FB01214046AA
:1048F000736908AA984700287FF4B6AEBCE700BFEA
:104900008C1F0020341F0020301E0020D8A800106B
:10491000F53A001022280020D01100202428002081
:104920009DF824300F2BA7D8AE4A3B441B79127850
:10493000934232D3511C99429EDBAB4E9B1A06EB3D
:104940004316706900F086FB01214046736908AA8E
:10495000984700287FF488AE9DF8203013F0600659
:104960008AD19DF821300A3B012B85D800F072FBDB
:104970009DF821300A2B00F0F281404608A900F092
:10498000EFFA71E6994B1B6803EB4016002A00F022
:104990000D81002E3FF470AFA5E7944A166816EB20
:1049A0004316CED168E77B789DF822609E4200F0E6
:1049B0004F817B78002B40F0BE817E70002E00F08E
:1049C0004581701EC0B2FFF7D1FA0346002800F0FF
:1049D0005F814278022A40F05B81C17903F10906C8
:1049E000C1F340121201C1F3801142EA4112314673
:1049F000387820F0300002433A705A88CDF80C80A5
:104A00009A180192019B8B4240F2A4814A780B2AAA
:104A100000F0AF810123042A40F03A810026019A78
:104A20000096521A92B202926E4A049312781DE0D6
:104A30006E4B1B6813EB461800F02A81029AD8F8D7
:104A4000103003980591984708280246059906F109
:104A5000010303D90298904280F0FF80DEB2614BDF
:104A600000961A78531C9E4200F31281009BB242BA
:104A7000A3EB0202DCD85C4B03EB4218DEE77B7849
:104A800040468DF81A300DF11A02012308A900F0F2
:104A900081FAE9E5BDF82200030A013B020AC0B22F
:104AA0000E2B3FF6E9AE01A151F823F0C14C0010E6
:104AB0005D4B0010FD4C0010794800107948001043
:104AC000DF4C00105D4B0010794800107948001051
:104AD0007948001079480010794800107948001092
:104AE00079480010B34C001008A800F0B9FA40460D
:104AF0009DF82210FFF79CFB3B7843F002033B70CC
:104B0000B2E5BDF82230012B7FF4B6AE3B784046CB
:104B100023F0080308A93B7000F022FAA4E5404600
:104B20003B789A0802F00202C3F340131343ADF836
:104B30001A300DF11A02022308A900F02BFA93E5AE
:104B4000BDF82230012B7FF497AE3B78404643F00E
:104B5000080308A93B7000F003FA85E5022A3FF438
:104B60007EAEFFF7DBFC024600283FF485AE4046F0
:104B7000538808A900F00EFA00287FF475AD7BE693
:104B80009DF824300F2B3FF677AE164A3B441B7935
:104B9000127893421DD2154A166816EB43167FF41D
:104BA000A2AE69E6002A7FF467AE00269DF82120B8
:104BB00002F0FD03012B1BD0002A7FF456AE019BAF
:104BC000009A3B44134493F834304046C3F3400307
:104BD000ADE7511C9942FFF64FAE034E9B1A06EB10
:104BE000431680E622280020D8A80010301E00209E
:104BF000BDF82230B3B9012A99F8000000F0868090
:104C0000FFF7D4FB019B009A3B44134493F83420F4
:104C100042F0020283F8342093F8342042F001027B
:104C200083F83420002E3FF41FAD706900F012FAB3
:104C30007369012108AA40469847002000F00AFA4B
:104C400097F83530DF073FF50FAD96E6FFF76AFCC2
:104C5000404608A900F084F906E5049B012B00F00A
:104C60009E80002B00F08A80002091F8028005E0F1
:104C70008CF804605FFA80FC63457FD908EB000C78
:104C800057FA8CFC9CF804E00130BEF1FF0FEFD026
:104C90004FF0E023D3F8F03DDA0700D500BE4FF027
:104CA000E023D3F8F03DDB0700D500BE00237B7086
:104CB000E2E5FEF71BFF024600287FF458AFDBE574
:104CC000FFF750F9024600283FF4CFAD40461223CB
:104CD00008A900F05FF900287FF4C6ACCCE5FFF727
:104CE0001BFC024600283FF4C7AD4046137808A9D4
:104CF00000F050F900287FF4B7ACBDE5BDF82410F2
:104D0000FFF738F902460028EFD1B5E50293FFF727
:104D100063FB019A009B3A441A4492F83410029BB8
:104D200063F3410182F8341092F8341063F3000108
:104D300082F8341076E700214046FFF781FA4046BA
:104D4000FFF71EFBBB7840460093FFF79BFB009BE1
:104D5000BB7032E6DDF80C80FFF7E2FB78E74046F7
:104D6000012308A90DF11A028DF81A6000F012F95A
:104D70007AE40A78CB7811444A784CE633461048F6
:104D80000492029100F09EFE0E4B049A02991B7849
:104D90001144009A01339342BFF634AE78E7D8F855
:104DA00010C00948844508BF02235DE74FF0E023A7
:104DB000D3F8F03DDB077FF557AC00BE54E400BFED
:104DC000481F0020222800208D5400102DE9F84FA4
:104DD000DDF82890002A3ED00C461F4616460025D6
:104DE000DFF87880DFF878A016E020469AF8021005
:104DF00000F018FEF0B121465846FFF73DFA00B327
:104E0000A3780135DA0916BF0B9A89F800301370C0
:104E10002378B5421C441ED06378052B11D1E3786A
:104E200003F00303BB420CD1A27898F800B012F053
:104E30007002DAD04FF0E023D3F8F03DDA0700D566
:104E400000BE4FF0E023D3F8F03DDB0700D500BEF5
:104E50000020BDE8F88F0120BDE8F88FD0110020B8
:104E6000341F002038B58A780D4B12F070021D787F
:104E700008D04FF0E023D3F8F03DDB0700D500BEAB
:104E8000002038BD074B0C460846997800F0CAFD53
:104E90000028EED021462846BDE83840FFF7ECB99F
:104EA000D0110020341F00200B46064A0648116826
:104EB000DA09343203F07F0302EB4303184400F0B5
:104EC0006BBD00BF881F0020341F00200B46064A20
:104ED00006481168DA09343203F07F0302EB43031A
:104EE000184400F083BD00BF881F0020341F00203D
:104EF00010B5194C01F07F0E04EB4E0404EBD114F5
:104F000094F834C015481CF0010F04F13004007807
:104F100008D04FF0E023D3F8F03DDA0700D500BE0B
:104F2000002010BD94F804C04CF0010C84F804C0BB
:104F3000FFF728FA0028F4D14FF0E021227960F33E
:104F400000022271227960F382022271D1F8F03DD1
:104F5000DB07E5D5E3E700BF341F0020D0110020B8
:104F600030B50B4C8C46A6460546086849680023B8
:104F7000AEE803009CF800102846C943C4E9023398
:104F8000BDE830401A4601F08001FFF7B1BF00BF15
:104F9000F41E00202DE9F041274F4FF00008BE46D7
:104FA0008C46064608684968BA60AEE80300A7F870
:104FB0000E801546BCF80620934228BF1346BB81DD
:104FC0009AB11C462BB3DDB197F90030402C28BFB5
:104FD0004024002B28DB414623463046174AFFF782
:104FE00087FF68B10120BDE8F0819CF800101346EE
:104FF000C943304601F08001FFF77AFF0028F1D164
:105000004FF0E023D3F8F03DDB0700D500BE0020D1
:10501000E9E71A46397801F0800123463046FFF768
:1050200067FF0028DED1EBE722462946034805F05A
:10503000ADF88021014AF0E7F41E0020B41E0020E4
:105040000022034BC3E90022C3E902221A61704720
:10505000F41E0020014B1861704700BFF41E0020B1
:1050600030B40246044C0025234600685168C4E968
:10507000025530BC03C37047F41E002070B53C4C91
:10508000C90922780646B1EBD21F1D4682B017D05F
:1050900053B14FF0E023D3F8F03DDB0702D40020FA
:1050A00002B070BD00BEFAE72146FFF7D7F82369CA
:1050B0001BB12246032130469847012002B070BD43
:1050C00094F90030A068002B05DB0028E7D02A46C1
:1050D000284905F05BF8E089A168E388284480B29C
:1050E00029448342E081A16016D03F2D14D9A289C2
:1050F00094F90040131A9BB2402B28BF4023002C88
:1051000026DB90424FF0000130D01A4A3046FFF7BC
:10511000EFFE0028D1D1BCE7236923B1022130463C
:10512000134A984758B121780023C94330461A469C
:1051300001F08001FFF7DCFE0028BED1A9E701469F
:105140003046FFF733F980213046FFF72FF9B4E7F7
:10515000904208D01A460748019305F017F88021BD
:10516000044A019BD2E780210022CFE70A46CDE71F
:10517000F41E0020B41E00202DE9F0410446FFF784
:10518000D7F908B9BDE8F081FFF7DAF9074600283A
:10519000F8D1C822134B02FB0436F1780029F1D074
:1051A00006F11005284600F005FE3F28EAD93846EA
:1051B000F178FFF779FE0028E4D0284600F0FAFDE8
:1051C0003F2809D9084A3846F17802EBC412402337
:1051D000BDE8F041FFF78CBE3846F178BDE8F041FC
:1051E000FFF774BE70170020341E002010B504466F
:1051F000FFF79EF908B9002010BDFFF7A1F90028BC
:10520000F9D1C822034B02FB0433187900F00100E6
:1052100010BD00BF70170020C82108B5102301FB86
:105220000030024A104400F0ABFD08BD70170020AA
:105230002DE9F8434FF6FF734FF0C80810249A4247
:1052400028BF1A4618FB00441A4F06463C44204625
:1052500092B200F00BFE0546FFF76AF910B9284636
:10526000BDE8F883FFF76CF981460028F7D108FB09
:105270000677FB78002BF2D0204600F09BFD3F28FC
:10528000EDD94846F978FFF70FFE0028E7D0204611
:1052900000F090FD3F2808D9074A48464023F97896
:1052A00002EBC612FFF724FED9E74846F978FFF76C
:1052B0000DFED4E770170020341E00202DE9F041C8
:1052C0000546FFF735F910B90020BDE8F081FFF77A
:1052D00037F906460028F7D14FF0C808242418FBF8
:1052E0000544174F3C44204600F04AFD0028EBD00F
:1052F00008FB05773046B978FFF7D6FD0028E3D0E4
:105300004022104B204602EBC5141C44214600F0FD
:10531000ADFD054680B1034622463046B978FFF719
:10532000E7FD38B94FF0E023D3F8F03DDB07CBD5EC
:1053300000BEC9E72846C8E7B978FFF7C7FDC3E74D
:1053400070170020341E002038B54FF6FF734FF061
:10535000240CC8249A4228BF1A4614FB00C40A4BE6
:1053600092B21C440546204600F03CFE034620460F
:105370001C4600F005FD3F2801D8204638BD2846D0
:10538000FFF79CFF204638BD70170020C82108B5E4
:10539000242301FB0030024A104400F00BFD08BD3D
:1053A00070170020F0B51A4C83B0C82200212046A7
:1053B00004F064FA0025FF264FF4E130082100953F
:1053C00001236671A060A173402204F1380104F149
:1053D000100000F0A5FC0F4A0123117804F1B80772
:1053E000C1F380014022009104F1240004F178010E
:1053F00000F096FC04F1C0063846FBF7B7FC3046D7
:10540000FBF7B4FCC4E90757C4E90C6503B0F0BD71
:1054100070170020D4110020094B196B49B11A6A8A
:1054200012B10022C3E907220022C3E90C220120A5
:1054300070471A6A002AFAD00120C3E907117047A1
:1054400070170020002210B50D4C0E482378026022
:105450000271DA0709D59B070DD521780A48C1F3F7
:105460008001BDE8104000F085BE103000F066FEFF
:1054700023789B07F1D4044800F060FEEDE700BFFD
:10548000D41100207017002094170020F0B54B793C
:1054900083B0022B03D00025284603B0F0BD8B79E2
:1054A000022BF8D1264FBB783BB14FF0E023D3F865
:1054B000F03DDB07EFD500BEEDE78B7806463B708D
:1054C0000B780925CC18617824290BD1082A02D839
:1054D0000FE0AA420DD323781C4461782B44242981
:1054E0009DB2F6D005290AD0042902D163790A2B8E
:1054F00013D00020FFF740FE284603B0F0BD214640
:105500003046FFF7AFFC0028CFD0A3787B7023781C
:105510001C442B4461789DB2E6E70A4B277801933F
:1055200001330093022330461A46E119FFF74EFC7F
:105530000028BAD00E3517FA85F5ADB2D9E700BF0D
:10554000701700207217002038B5137803F060033D
:10555000202B05D1274C938894F800C09C4501D09E
:10556000002038BD5378203B032BF9D8DFE803F047
:105570002C280D02012933D0032923D11E4B0BB354
:1055800000205188AFF300801CE0012928D00329B6
:1055900018D11A4B55881978257111F0040105F0BE
:1055A0000104174818BF84F0010100F0E3FD154B1A
:1055B00043B121460020C5F34002AFF3008001E073
:1055C000012911D0012038BD01290DD00329F9D1BD
:1055D0000D4B002BF6D000200C49FEF7A7FAF1E79F
:1055E0001146FFF7BDFCEDE711460723074AFFF719
:1055F000D1FCE7E77017002000000000D411002064
:1056000094170020000000002D3B001078170020A8
:105610002DE9F047374F0C46FA7806468A421D4678
:1056200097F802C03DD08C4512D04FF0E023D3F85C
:10563000F03DDB0700D500BE00200DE02E4B23B16E
:105640002E4800F0ADFB002850D00020FFF794FD5D
:10565000BB78A34202D00120BDE8F087284B13B1EC
:105660000020AFF300800020FFF728FE0028F2D1D1
:10567000244800F085FB0028EDD1002DEBD015F07B
:105680003F05E8D13046B978FFF70EFC0028E2D09C
:105690002B462A463046B978FFF72AFC0028DAD193
:1056A000C3E7DFF868809AB2414607F1100000F0C6
:1056B00099FC154B002BC1D07B79FF2BBED0002D60
:1056C000BCD007F1100908EB050A02E0C245B5D0CD
:1056D0007B7918F8012B9A42F8D1484600F060FB1C
:1056E0000028F3D17979AFF30080EFE7AFF30080C2
:1056F000ABE700BF701700200000000080170020FB
:10570000000000009417002000000000341E00205C
:10571000F0B5144C85B04FF413720021204604F00C
:10572000ADF8402700234FF480760F4D04F5A672A4
:105730001946CDE90257009201961A4604F5947075
:1057400000F0ECF9002304F128013D44009101220E
:105750001946CDE902570196201D00F0DFF905B08A
:10576000F0BD00BFD02000205020002010B5054C17
:10577000204600F0FFF9A4F5927000F0FBF901203B
:1057800010BD00BFF821002038B50025064C04F5F7
:105790009870257000F0D2FC04F10C0000F0CEFCF3
:1057A00084F82951657138BDD02000202DE9F84FCB
:1057B0004B79FF2B02D00020BDE8F88F394D0E4603
:1057C00095F829310C78002BF5D16F79002FF2D1A3
:1057D0008B780C442B700B79002B3ED0804601EB6C
:1057E000020B05F5987A05F594796378052B09D0B5
:1057F000A34502D831E05C452FD223781C4463785E
:10580000052BF8D1A34528D921464046FFF72AFBAE
:1058100000283ED0A378DB0923D1504600F08EFC4F
:10582000A37895F8281185F82931A3884046C3F359
:105830000A03A3F50073B3FA83F35B0963F3410131
:1058400085F82811494600F003FA10B3237831791E
:1058500001371C44FBB29942C7D8A11B88B2BDE8EE
:10586000F88F114800F06AFCA37895F804C06B71BA
:10587000A3880E49C3F30A03A3F50073B3FA83F3B5
:105880005B0963F3410C002085F804C000F0A8F91F
:10589000DCE74FF0E023D3F8F03DDB078BD500BE0B
:1058A00089E700BFD0200020DC200020D420002089
:1058B00070B51B4C064694F829C11D468C4562798B
:1058C00004D08A4218BF002018D070BDB4F834311B
:1058D00063B9144B23B100201349AAB2AFF300807F
:1058E0003046124900F0B4F9012070BDD4F82C11F3
:1058F000AAB204F5987000F075FBEAE70C4B1BB1F7
:105900000020A9B2AFF3008030460A4900F068F9E0
:105910000028E9D12A463046064900F02DF9E3E790
:10592000D02000200000000050200020F82100209E
:1059300000000000D420002010B582B0B9B10128C9
:105940000CD80B7853B1134C012B235402D00120F7
:1059500002B010BDFEF7FCFD0028F8D14FF0E023A7
:10596000D3F8F03DDB0700D500BE0020F0E70124AE
:10597000084601A9ADF80440FEF7EAFD38B94FF03A
:10598000E023D3F8F03DDA07E2D500BEE0E7014BB3
:105990001C70DDE7281F0020F8B5037813F0010420
:1059A0001AD1037805465A07C3F3800701D520466C
:1059B000F8BD0E464FF0FF31304604F00DFD2B7858
:1059C00013F001040BD12B785B0709D42B78012449
:1059D00043F004032B7003E000242046F8BD3C464E
:1059E000304604F009FD2046F8BD00BF70B50C46F6
:1059F00005464FF0FF31204604F0EEFC2B78C3F350
:105A000080065B0708D52B7813F0010311BF002631
:105A10002A7863F382022A70204604F0EDFC3046B7
:105A200070BD00BF00B5C378B0F804E003F0030315
:105A3000022BCEF30A0C15D0032B04D0012B28D057
:105A400000205DF804FB022914BF40234FF480635B
:105A500063451CD24FF0E023D3F8F03DDA07EFD5D1
:105A600000BEEDE702291DD012B1BCF5007F21D0A8
:105A7000BCF1200F1AD81EF4FF6FEBD0104BACF125
:105A8000080C1FFA8CFC23FA0CF3DB07E2D501208B
:105A9000D7E7022940F2FF3308BF4FF48063634524
:105AA000F5D2D7E7BCF5007FF1D0D3E7BCF1400FCA
:105AB000EDD0CFE70022402342710371E7E700BF3A
:105AC000010100010A44914226D291F801C0BCF1C3
:105AD000050F05D091F800C061448A42F5D870479F
